:10000000008000204D3D0000A93D0000550E00007D
:1000100000000000000000000000000000000000E0
:10002000000000000000000000000000A93D0000EA
:100030000000000000000000A93D0000D12F0000DA
:10004000A93D0000A93D0000AD360000A93D00001B
:10005000A93D0000A93D0000A93D0000A93D000008
:10006000A93D0000A93D0000C5050000A93D000014
:10007000A93D0000252D00004D2900007505000058
:10008000552C0000A93D0000A93D0000A93D00003D
:10009000A93D0000A93D0000A93D0000A93D0000C8
:1000A000A93D00000000000000000000A93D000084
:1000B000A93D0000A93D0000A93D0000A93D0000A8
:1000C00080B584B000AF80235B04181C012103F0CD
:1000D000D7FB3B1D00221A723B1D01225A723B1DA9
:1000E0000022DA703B1D00221A713B1D00225A715A
:1000F0003B1D00229A713B1D0022DA713B1D01223B
:100100009A703B1D00229A723B1D80221A80254A5C
:100110003B1D101C191C03F0EDFA80239B02181CD8
:10012000012103F0ADFB204B00221A601E4B1E4A3A
:1001300011681E4A0A401A601B4B1B4A11681C4A70
:100140000A401A60184B184A11681A4A0A401A6085
:10015000154B154A126808218A431A60124B124A3D
:10016000126804218A431A600F4B0F4A1168124A21
:100170000A401A600C4B1B680B4B00221A600A4B9A
:10018000094A11680D4A0A401A60074B064A12686C
:10019000120112091A60012003F08EFABD4604B064
:1001A00080BDC04600000C4000800840FFFFFEFFFD
:1001B000FFF7FFFFFFFDFFFFFF0FFFFFFFFFFFF157
:1001C00080B582B000AF114B104A1168104A0A4046
:1001D0001A600E4B0D4A12681A600C4B0B4A1268DB
:1001E00002210A431A60FB1D00221A7004E0FB1D65
:1001F000FA1D127801321A70FB1D1B780B2BF6D9F1
:10020000024B9B69181CBD4602B080BD00800840AF
:100210000FFEFFFF80B584B000AF7860524B1B78B3
:10022000002B04D0504B1B78022B00D094E07B684D
:10023000002B04D13B1C0F3301221A708CE07A682A
:1002400087235B009A4208D97A68484B9A4204D8BF
:100250003B1C0F3302221A707EE07A68A0239B00B9
:100260009A4208D97A68424B9A4204D83B1C0F3311
:1002700003221A7070E07A683E4B9A4208D97A6875
:100280003D4B9A4204D83B1C0F3304221A7063E0A2
:100290007A683A4B9A4208D97A68394B9A4204D81C
:1002A0003B1C0F3305221A7056E07A68DC23DB0012
:1002B0009A4208D97A68334B9A4204D83B1C0F33D0
:1002C00006221A7048E07A682F4B9A4208D97A6859
:1002D0002E4B9A4204D83B1C0F3307221A703BE086
:1002E0007A682B4B9A4208D97A682A4B9A4204D8EA
:1002F0003B1C0F3308221A702EE07A68264B9A4274
:1003000008D97A68254B9A4204D83B1C0F3309223E
:100310001A7021E07A68224B9A4208D97A68214BF8
:100320009A4204D83B1C0F330A221A7014E07A68F0
:100330001D4B9A4208D97A681C4B9A4204D83B1C40
:100340000F330B221A7007E07A68194B9A4203D1D7
:100350003B1C0F330C221A703B1C0F331B78181CEC
:10036000BD4604B080BDC04670000020D50100002D
:1003700047030000F7030000BE0400006D05000005
:1003800034060000A7070000570800001E090000FF
:10039000C40900008B0A00004A0B0000110C000089
:1003A000B20C0000790D0000330E0000FA0E0000C0
:1003B000FF0F000080B582B000AF021CFB1D1A7059
:1003C000064BFA1D1278111C1F220A400121081C3D
:1003D0009040021C1A60BD4602B080BD00E100E002
:1003E00080B500AF00F008F800F040F800F058F8D1
:1003F00000F07EF8BD4680BD80B500AF8D239B0523
:10040000181C012103F03CFA144B144A9268A021F5
:1004100089050A439A60114B104AD268C021C9016C
:100420000A43DA600D4B0D4A9269F02189050A43AF
:100430009A610B4B0A4A92680A490A439A60084B30
:10044000074AD268FF210A43DA60054B044A9269E1
:1004500005490A439A61BD4680BDC04600000C4074
:1004600000000B40AAAA0000FFFF000080B500AF0B
:1004700080235B05181C012103F002FA074B0022C0
:100480001A60064B00225A60044BFD221A60034B8F
:1004900080229200DA61BD4680BDC04600000E4059
:1004A00080B500AF8023DB04181C012103F0E8F9BC
:1004B0000D4B00221A600C4B04225A600A4B00229A
:1004C0009A60094B084A9268C02189050A439A60DC
:1004D000054B054A126805490A431A600A20FFF7CE
:1004E00069FFBD4680BDC04600000D400FC03F0003
:1004F00080B588B000AF80231B02181C012103F0D7
:10050000BFF93B1C00221A603B1C40229A803B1C16
:10051000164A9A603B1C00229A813B1C0022DA8119
:100520003B1C00221A823B1C00225A823B1C0022E8
:100530009A820F4A3B1C101C191C03F0BFF90C4B8C
:10054000181C002103F086FA094B181C0221012215
:1005500003F042FA064B181C012103F0E7F90F20C3
:10056000FFF728FFBD4608B080BDC04600710200FD
:100570000080074080B500AF0C4B0C4A526D022141
:100580008A435A650A4B0B4A1268DA600A4B1B7899
:10059000012B03D1064B094A1268DA60084B1B682D
:1005A0005A1C074B1A60BD4680BDC04600800740FC
:1005B00000000E4044000020700000204800002091
:1005C0004000002080B584B000AF494BDB689A0B37
:1005D0000F231340FB60464BDA680F231340BB60C8
:1005E000FB68002B43D0FA68012313400CD0404B2A
:1005F0003F4A126801218A431A603D4B3C4A126807
:1006000001210A431A6070E0FA68022313400CD0FB
:10061000374B374A126802218A431A60344B344AF6
:10062000126802210A431A605FE0FA68042313404B
:100630000CD02F4B2E4A126804218A431A602C4B8F
:100640002B4A126804210A431A604EE0FA68082314
:1006500013400CD0264B264A126808218A431A60A0
:10066000234B234A126808210A431A603DE0BA6806
:100670000123134039D01E4B0022DA6130E01C4BBD
:100680005B6A7B60FB1C7A681A701A4B1B78022B22
:100690000FD1FB1C1B781A2B22D1174B1A687B68D1
:1006A0009A4202D1154B7A681A60134B7A681A6025
:1006B00016E0104B1B78012B12D1FB1C1B781A2B58
:1006C00003D0FB1C1B78192B0AD10B4B1A687B68D3
:1006D0009A4202D1094B7A681A60074B7A681A600D
:1006E000034BDA6801231340C9D1BD4604B080BD75
:1006F00000000D40700000204C0000203C00002055
:1007000090B583B000AF3B1D197800220A401A2132
:100710000A431A70894B1B689B059B0FD9B27B1D3E
:1007200003220A401978032081430A431A70834B3D
:100730001B689B07DB0FD9B27B1D01220A40920088
:100740001978042081430A431A707C4B1B68DB072D
:10075000DB0FD9B27B1D01220A40D2001978082094
:1007600081430A431A707B1D1A7810218A431A703C
:10077000734B1B88181C00F0F5F8031C5B037968A9
:10078000704A0A4013437B606C4B5A780423134031
:10079000DBB2002B07D0FB1D1A7860218A43402171
:1007A0000A431A7004E0FB1D1A7860218A431A700C
:1007B0007A68654B1A60654B1B78012B15D13B1D80
:1007C000197800220A4019210A431A70604B1B88CD
:1007D000181C00F0C7F8031C5B037968594A0A40EB
:1007E00013437B607A685B4B1A605B4B1B687B60D2
:1007F000564B1B78012B18D13B1D1B78192B0AD1A6
:100800004E4B1A7804210A431A704C4B1A7808216F
:100810008A431A7009E0494B1A7804218A431A70F6
:10082000464B1A7808210A431A707B68DB001B0CC0
:100830009AB21F2313409AB27B68DB001B0C9BB259
:100840005B0A9BB2191C0F230B405B009BB2642117
:100850004B4399B27B68DB001B0C9BB25B099BB2DC
:10086000181C0F2303405B009BB2181C8000C318A8
:100870005B009BB2CB189BB2D3189AB27B68DB00AB
:100880001B0C9BB25B0B9BB2191C0F230B405B0034
:100890009BB2FA2189004B439BB2D3189AB22F4BDB
:1008A0001A802E4B1A882E4B1F211140C9001C782C
:1008B0000720204001431970510988B2FF210140EF
:1008C0005C780020204001435970520B92B2111CF9
:1008D00007220A409978072081430A439A707B686F
:1008E0001B05DB0FD9B21E4B01220A4019780120EB
:1008F00081430A431A707B685B05DB0FD9B2184B42
:1009000001220A4052001978022081430A431A70DA
:10091000FB1D1A7860231340DBB2402B05D1104B2E
:100920001A7804210A431A7004E00D4B1A78042146
:100930008A431A70BD4603B090BDC046A80100208E
:100940007C000020FF1F00E0440000207000002019
:100950007E000020480000203C0000208200002093
:10096000A401002080B584B000AF021CBB1D1A801A
:100970003B1C0E33BA1D12881A803B1C0E33BA1D65
:10098000118801220A401A80BB1D1B885B089BB29C
:10099000181C0A2103F0DAFA0B1C9BB25B0099B217
:1009A0003B1C0E333A1C0E3212888A181A80BB1D6B
:1009B0001B885B089BB2181C0A2103F083FA031CF6
:1009C0009BB2181C0A2103F0C1FA0B1C9BB25B01FD
:1009D00099B23B1C0E333A1C0E3212888A181A80C8
:1009E000BB1D1B885B089BB2181C642103F06AFACC
:1009F000031C9BB2181C0A2103F0A8FA0B1C9BB223
:100A00005B0299B23B1C0E333A1C0E3212888A18D4
:100A10001A80BB1D1B885B089BB2181CFA23990027
:100A200003F050FA031C9BB2181C0A2103F08EFA43
:100A30000B1C9BB25B0399B23B1C0E333A1C0E326B
:100A400012888A181A803B1C0E331B88181CBD465E
:100A500004B080BD98B500AF404B1B68012B1DD181
:100A60003E4B00221A603E4B1A683E4B1B68D21A5E
:100A70003D4B1A603A4B1A683A4B1A603B4B1A6866
:100A8000131CDB009B1ADA08384B1A60364B1B68C4
:100A9000DA08364B1B68D218344B1A60344B1B688B
:100AA000012B59D1324B00221A60324B1A68324B5B
:100AB0001A60314B1A682B4B1B689A424CD92E4B4B
:100AC0001A68284B1B68D21A2C4B1A602C4B1A68D8
:100AD000131CDB009B1ADA08284B1B68DB08D218B2
:100AE000274B1A60204B1B68181C03F06BFD041C7D
:100AF000224B1B68181C03F065FD031C201C191CED
:100B000003F048FA031C1A1C1E4B1A601D4B1B688D
:100B10001D48191C03F03EFA031C1A1C1B4B1A60DB
:100B20001A4B1B68181C03F01DFA031C182B07D066
:100B3000164B1B68181C03F015FA031C192B0BD15C
:100B40000F4B1A68131CDB009B1ADA080B4B1B684F
:100B5000DB08D2180A4B1A60BD4698BD4801002038
:100B60004001002050000020580000205C000020C0
:100B70004C010020440100205400002060000020AF
:100B800064000020680000200000C8426C000020C3
:100B900080B500AF01F02EFD031C1A1C014B1A801A
:100BA000BD4680BD7200002080B582B000AF021C3F
:100BB000FB1D1A70FFF7ECFFFB1D1B780B2B00D9F8
:100BC00080E09A00424BD3181B689F46414B1B881C
:100BD0001A1C0123134001D0002374E0012372E0AA
:100BE0003C4B1B881A1C0223134001D000236AE0EF
:100BF000012368E0374B1B881A1C0423134001D0E3
:100C0000002360E001235EE0324B1B881A1C08239E
:100C1000134001D0002356E0012354E02D4B1B88E4
:100C20001A1C1023134001D000234CE001234AE09A
:100C3000284B1B881A1C2023134001D0002342E0BC
:100C4000012340E0234B1B881A1C4023134001D092
:100C5000002338E0012336E01E4B1B881A1C80233A
:100C6000134001D000232EE001232CE0194B1B88F8
:100C70001A1C80235B00134001D0002323E00123D2
:100C800021E0144B1B881A1C80235B00134001D009
:100C9000012318E0002316E00E4B1B881A1C80234A
:100CA0009B00134001D000230DE001230BE0094B12
:100CB0001B881A1C80239B00134001D0012302E0F3
:100CC000002300E00023181CBD4602B080BDC046D2
:100CD000D84800007200002090B583B000AFFFF745
:100CE0006FFA031CFC1D181CFFF794FA031C2370F9
:100CF000BB1D134A12781A70124B1B78FA1D12781A
:100D00009A4205D001F08CFE021C0F4B1A600DE0D8
:100D10000D4B1B68181C01F08DFE021CFA231B01F1
:100D20009A4203D9064BFA1D12781A70054BFA1D28
:100D300012781A70024B1B78181CBD4603B090BD88
:100D400074000020750000207800002080B500AFFE
:100D5000024B1B78181CBD4680BDC04674000020A5
:100D600090B583B000AF021C3960FB1D1A70FB1DEB
:100D70001B78181CFFF718FF031C1FD0FB1D1A78E7
:100D8000144B9200D358002B08D1FB1D1C7801F0A6
:100D900047FE011C0F4BA200D1500DE0FB1D1A783D
:100DA0000C4B9200D358181C01F044FE021C3B6807
:100DB0009A4201D3012308E0002306E0FB1D1A78C4
:100DC000044B92000021D1500023181CBD4603B0F3
:100DD00090BDC0465C01002080B582B000AF021C0F
:100DE000FB1D1A70FB1D1A78034B92000021D15095
:100DF000BD4602B080BDC0465C01002080B500AF9A
:100E0000114B01229A60C0460F4B1A68042313400D
:100E1000FAD00D4B81225200DA600B4B0B4A5A601C
:100E2000C046094B1A6802231340FAD0082001215A
:100E300002F026FD064B10221A60034B832252005B
:100E4000DA60BD4680BDC0460000024004070000D5
:100E50000080014080B500AFFEE7C04690B583B08A
:100E600000AFFFF773FF031C1C1C00F02FFF031CD7
:100E70009C4200D0FBE0FA23DB010020191CFFF7A5
:100E80006FFF031C19D0AC4B1B88181C142103F0F6
:100E90005DF80B1C9BB2132B06D1A74B1B88133B91
:100EA0009AB2A54B1A8005E0A34B1B8801339AB276
:100EB000A14B1A800020FFF78FFFFA23DB010120EE
:100EC000191CFFF74DFF031C19D09B4B1B88181CE6
:100ED000142103F03BF80B1C9BB2002B06D1964B60
:100EE0001B8813339AB2944B1A8005E0924B1B88EF
:100EF000013B9AB2904B1A800120FFF76DFFFA2355
:100F0000DB010220191CFFF72BFF031C21D08A4BA9
:100F10001B885B089BB2181C0A2102F0D3FF031C3C
:100F20009BB2181C0A2103F011F80B1C9BB2092B71
:100F300006D1814B1B88B43B9AB27F4B1A8005E0E7
:100F40007D4B1B8814339AB27B4B1A800220FFF72B
:100F500043FFFA23DB010320191CFFF701FF031CE9
:100F600021D0754B1B885B089BB2181C0A2102F02C
:100F7000A9FF031C9BB2181C0A2102F0E7FF0B1CFF
:100F80009BB2002B06D16C4B1B88B4339AB26A4BD0
:100F90001A8005E0684B1B88143B9AB2664B1A8096
:100FA0000320FFF719FFFA23DB010420191CFFF7C8
:100FB000D7FE031C22D0604B1B885B089BB2181C19
:100FC000642102F07FFF031C9BB2181C142102F065
:100FD000BDFF0B1C9BB2132B07D1574B1B88574AE5
:100FE0009B189AB2544B1A8005E0534B1B88C833A8
:100FF0009AB2514B1A800420FFF7EEFEFA23DB0170
:101000000520191CFFF7ACFE031C22D04A4B1B889D
:101010005B089BB2181C642102F054FF031C9BB2B6
:10102000181C142102F092FF0B1C9BB2002B07D15D
:10103000414B1B88424A9B189AB23F4B1A8005E0ED
:101040003D4B1B88C83B9AB23B4B1A800520FFF7EB
:10105000C3FE394B1A883B4B1A803B4B1B78012B44
:1010600000D0B3E0344B1A88384B1A80AEE0FA2334
:10107000DB010220191CFFF773FE031C17D0344B51
:101080001B78013BDAB2324B1A70314B1B78002BC4
:1010900002D12F4B01221A700220FFF79DFE01F0B2
:1010A000BFFC021C2B4B1A602B4B01221A70FA2337
:1010B000DB010320191CFFF753FE031C17D0244B40
:1010C0001B780133DAB2224B1A70214B1B780A2BA2
:1010D00002D91F4B0A221A700320FFF77DFE01F090
:1010E0009FFC021C1B4B1A601B4B01221A70164BF3
:1010F0001B78022B32D100F0FDFF031C0AD0FFF752
:1011000025FE031C181C00F0EBFC031C1A1C0D4BE5
:101110001A8041E0FFF71AFE031C1C1C00F088FD3A
:10112000031CE318DBB2181C00F0DAFC031C1A1CC9
:10113000044B1A8030E0C0468000002028F1FFFFF9
:10114000D80E00007C000020700000207E000020EF
:1011500034000020980000209C000020894B1B7860
:10116000012B19D1FFF7F2FD031C181C00F0B8FC8D
:10117000031C1A1C844B1A80FFF7E8FD031C1C1C7F
:1011800000F056FD031CE318DBB2181C00F0A8FCAD
:10119000031C1A1C7D4B1A807D4B1B78012B15D12B
:1011A0007C4B1B68181C01F045FC021C7A4B9A42D0
:1011B0000CD900F071FD031C1A1C784B1B78101C15
:1011C000191C00F01DFC724B00221A70744B1B8816
:1011D000DAB201231340DBB23A1D191C8900CB1887
:1011E00013706F4B1B885B089BB2181C0A2102F01E
:1011F000ADFE0B1C9AB2FB1C1A70694B1B885B0876
:101200009BB2181C0A2102F05DFE031C9BB2181C45
:101210000A2102F09BFE0B1C9AB2FB1D1A70604B58
:101220001B885B089BB2181C642102F04BFE031C58
:101230009BB2181C0A2102F089FE0B1C9AB2BB1D3E
:101240001A70574B1B885B089BB2181CFA23990035
:1012500002F038FE031C9BB2181C0A2102F076FE35
:101260000B1C9AB27B1D1A707B1D1B78002B10D1B2
:101270007B1D10221A70BB1D1B78002B09D1BB1DD2
:1012800010221A70FB1D1B78002B02D1FB1D1022AF
:101290001A70434B1A88434B9A4204D9404B1A8820
:1012A000414B9A4204D93E4B1A88404B9A421BD17B
:1012B0003F4B5A7804231340DBB2002B14D13D4B33
:1012C0007A1D12781A713B4BBA1D1278DA70394BBD
:1012D000FA1D12789A70374BFA1C12785A70354BF7
:1012E0003A1D12781A7049E0334B1B78012B20D13C
:1012F000304B10221A712F4B1022DA702D4B102216
:101300009A702C4B10225A702A4B10221A702B4BB9
:101310001B68181C01F08EFB021C294B9A422DD928
:10132000254B00221A7001F07BFB021C234B1A6034
:1013300024E0204B7A1D12781A711E4BBA1D1278C8
:10134000DA701C4BFA1D12789A701A4BFA1C12783C
:101350005A70184B3A1D12781A70184B1B68181CDB
:1013600001F068FB021C164B9A4207D9124B01226E
:101370001A7001F055FB021C104B1A60BD4603B0F9
:1013800090BDC046700000207C0000207E00002040
:101390009C00002098000020801A060034000020E5
:1013A000820000202B010000AC0D00000C11000099
:1013B000A80100208C01002084000020880000206B
:1013C000204E000090B583B000AF534B1A7808232D
:1013D0001340DBB2002B07D14F4B1A780423134084
:1013E000DBB2002B00D192E04C4B1B78002B1ED1BE
:1013F000FFF772FC031C1C1C00F068FC031C9C42E1
:1014000000D085E0FA235B010620191CFFF7A8FC39
:10141000031C00D17CE0414B01221A700620FFF72B
:10142000DBFC01F0FDFA021C3D4B1A6070E03B4B07
:101430001B78012B14D13A4B1B68181C01F0FAFAE7
:10144000021C384B9A4202D9344B00221A700620F3
:10145000FFF7AAFB031C5BD1304B02221A7057E046
:101460002E4B1B78022B45D12D4B1B68181C01F00D
:10147000E1FA021C2B4B9A4202D9284B00221A7027
:10148000FC1DFFF729FC031C237000F01FFC031C4C
:10149000FA1D12789A423BD0FA235B010620191CF0
:1014A000FFF75EFC031C33D000F0C2FB031CFA1DE7
:1014B00012789A421AD800F01DFE031C08D01A4B6D
:1014C0001B88FA1D1278101C191C00F099FA0DE007
:1014D00000F0AEFB031C1A1CFB1D1B78D318DAB2FC
:1014E000114B1B88101C191C00F08AFA0B4B0322AD
:1014F0001A700DE0094B1B78032B09D10620FFF76A
:1015000053FB031C04D1054B00221A7000E0C046B7
:10151000BD4603B090BDC046A80100209100002048
:101520009400002080A903008000002098B500AF3F
:10153000684BDA78684B1A71664B9A78664BDA70AA
:10154000644B5A78644B9A70624B1A78624B5A70AB
:10155000604B1A79604B1A70FFF7F8FB031C1C1CD8
:1015600000F0B4FB031C9C420BD15C4B00221A70B0
:101570005A4B02225A70594B00229A70574B002244
:10158000DA70FFF7E3FB031C1C1C00F09FFB031C3D
:101590009C4200D19BE0FA23DB010220191CFFF7DB
:1015A000DFFB031C17D04E4B1B78013BDAB24C4BD0
:1015B0001A704B4B1B78002B02D1494B01221A7039
:1015C0000220FFF709FC01F02BFA021C454B1A60C0
:1015D000454B01221A70FA23DB010320191CFFF787
:1015E000BFFB031C17D03E4B1B780133DAB23C4BD8
:1015F0001A703B4B1B780A2B02D9394B0A221A70FE
:101600000320FFF7E9FB01F00BFA021C354B1A60CF
:10161000354B01221A70354B1B78022B1FD100F07D
:1016200069FD031C0AD0FFF791FB031C181C00F096
:1016300057FA031C1A1C2E4B1A802EE0FFF786FB6C
:10164000031C1C1C00F0F4FA031CE318DBB2181C8A
:1016500000F046FA031C1A1C254B1A801DE0234B90
:101660001B78012B19D1FFF771FB031C181C00F02C
:1016700037FA031C1A1C1E4B1A80FFF767FB031C6A
:101680001C1C00F0D5FA031CE318DBB2181C00F098
:1016900027FA031C1A1C174B1A80134B1B78012BBB
:1016A00015D1104B1B68181C01F0C4F9021C124B19
:1016B0009A420CD900F0F0FA031C1A1C084B1B7854
:1016C000101C191C00F09CF9074B00221A70BD4633
:1016D00098BDC046AC0100208C0100209401002080
:1016E000340000208C0000209000002070000020BA
:1016F0007C0000207E000020801A060080B582B0A9
:1017000000AF0A1CFB1D011C1970BB1D1A70BB1D0C
:101710001B78002B02D1BB1D00221A70BB1D1A784A
:101720002A4B9200D35CDB07DB0FDBB2181C0121D4
:1017300000F04EF8BB1D1A78244B9200D35C9B0737
:10174000DB0FDBB2181C022100F042F8BB1D1A7837
:101750001E4B9200D35C5B07DB0FDBB2181C04212D
:1017600000F036F8BB1D1A78184B9200D35C1B07AB
:10177000DB0FDBB2181C082100F02AF8BB1D1A7819
:10178000124B9200D35CDB06DB0FDBB2181C10217E
:1017900000F01EF8BB1D1A780C4B9200D35C9B0620
:1017A000DB0FDBB2181C202100F012F8BB1D1A78E9
:1017B000064B9200D35C5B06DB0FDBB2181C4021AA
:1017C00000F006F8BD4602B080BDC04608490000E2
:1017D00080B582B000AF0A1CFB1D011C19703B1DB7
:1017E0001A80FB1D1B78012B05D13B1D1B88181C83
:1017F00000F0C4FF04E03B1D1B88181C00F0FCFF38
:10180000BD4602B080BDC04680B582B000AF01F0D9
:1018100007F9031C7B600D4B10221A710B4B102231
:10182000DA700A4B10229A70084B10225A70074B3C
:1018300010221A70C0467B68181C01F0FBF8021CCD
:10184000034B9A42F7D9BD4602B080BD8C010020FF
:101850008F01000080B500AF024B034A1A60BD46FD
:1018600080BDC04600800640AAAA000080B500AF37
:10187000FFF7C4FAFEF724FC00F0C2FD00F00CFAFA
:10188000031C181C00F02CF9031CDAB2244B1A704C
:10189000234B1B780A2B02D9214B01221A7001F02D
:1018A00001F800F0F7FC1F4B00221A701D4B1B784B
:1018B000012B03D01B4B1B78022B03D1FEF790FDAD
:1018C00000E0C046FFF7C6FFFFF706FA00F018FA7F
:1018D000144B1B78022B03D0124B1B78012B03D126
:1018E000FFF7BCFAFFF76EFD0E4B1B78012B03D000
:1018F0000C4B1B78022B01D1FEF702FF094B1B7822
:10190000012B03D0074B1B78002B01D1FFF7A2F866
:10191000044B1B78002BD4D1FFF708FED1E7C0465B
:10192000340000207000002080B500AF064A8023FC
:10193000D3581A1C054B1A60034A802301214942DF
:10194000D150BD4680BDC04600E100E0A0000020AF
:1019500080B500AF024B034A12681A60BD4680BDD5
:1019600000E100E0A000002080B582B000AF786008
:101970000A1CBB1C1A80FFF7D7FFBB1C1B887A68A8
:10198000101C00211A1C02F097FFFFF7E1FFBD4673
:1019900002B080BD80B582B000AF7860FFF7C4FFB1
:1019A0007B68181C002102F08FFFFFF7D1FFBD46B6
:1019B00002B080BD80B582B000AFF0235B027B60D7
:1019C0007B681A88064B9A4206D17A68054B1B78C9
:1019D000101C191CFFF7C8FFBD4602B080BDC046F1
:1019E000FFFF00007000002080B582B000AFF02340
:1019F0005B027B607B681B88181CBD4602B080BD03
:101A000090B589B000AF0A1CFB1D011C19703B1D6D
:101A10001A80F8235B02BB61FB1D1B78002B57D09B
:101A200000F020F9031CFA1D12789A4250D8FB1DD1
:101A30001B78013B7B617B69FB6132E0FB695B00EA
:101A4000BA69D3183B613B1C0E333A6912881A807D
:101A50003B1C0E331A88214B9A421CD1FC6900F0C2
:101A600001F9031CE31A5B00BA69D2183B1C0E3360
:101A700012881A803A1C0E323B1D12881B889A422B
:101A800006D03A693B1D1B88101C191CFFF76CFF20
:101A90003B1D1B881DE000F0E5F8031CFA69D31814
:101AA000FB61FB697F2BC9D9FFF7AEFE00F06AF836
:101AB000F8235B02181CFFF76DFFFB1D1A783B1D16
:101AC0001B88101C191C00F07FF83B1D1B8800E0D0
:101AD0000023181CBD4609B090BDC046FFFF0000A2
:101AE00080B586B000AF021CFB1D1A703B1C123380
:101AF00000221A80FB1D1B78013B5B00FB60FB1D75
:101B00001B78002B33D0FB68F82252029B187B61B4
:101B10001AE07B691A88194B9A420ED100F0A2F89C
:101B2000031C5B005B427A69D2183B1C123312889B
:101B30001A803B1C12331B881CE000F093F8031C36
:101B40005B007A69D3187B617A690D4B9A42E0D9C0
:101B500000F088F8031C5B005B427A69D2183B1CDA
:101B6000123312881A803B1C12331B8802E03B1C84
:101B700012331B88181CBD4606B080BDFFFF000055
:101B8000FFF0010080B582B000AF00237B600FE062
:101B90007B68DBB20133DBB2181CFFF7A1FF031C2B
:101BA000191C084B7A685200D1527B6801337B6064
:101BB00000F058F8031C1A1C7B689A42E8DCBD460A
:101BC00002B080BDA400002080B584B000AF0A1C24
:101BD000FB1D011C19703B1D1A800123FB601BE0DB
:101BE000FB1D1A78FB689A420BD0FB68DAB2FB68DF
:101BF000591E0E4B4900CB5A101C191CFFF700FF51
:101C000007E0FB68DAB23B1D1B88101C191CFFF7AC
:101C1000F7FEFB680133FB6000F024F8031C1A1C7C
:101C2000FB689A42DCDABD4604B080BDA400002007
:101C300080B500AF0A4B1B78002B01D10B230CE0C1
:101C4000074B1B78022B01D10B2306E0044B1B78BA
:101C5000012B01D1122300E0FFE7181CBD4680BD17
:101C60007000002080B500AF0A4B1B78002B01D11B
:101C700017230CE0074B1B78022B01D1172306E03A
:101C8000044B1B78012B01D1252300E0FFE7181C32
:101C9000BD4680BD7000002080B500AF0A4B1B78A8
:101CA000002B01D117230CE0074B1B78022B01D12D
:101CB000172306E0044B1B78012B01D1252300E0FC
:101CC000FFE7181CBD4680BD7000002080B500AF46
:101CD0000A4B1B78002B01D10C230CE0074B1B781F
:101CE000022B01D10C2306E0044B1B78012B01D100
:101CF000132300E0FFE7181CBD4680BD70000020E4
:101D000080B500AFFA231B010A20191CFFF728F841
:101D1000031C08D0474B1A7801218A431A700A2005
:101D2000FFF75AF80FE0FA231B010B20191CFFF7ED
:101D300017F8031C07D03F4B1A7801210A431A7089
:101D40000B20FFF749F8FA231B010820191CFFF7A5
:101D500007F8031C08D0374B1A7802218A431A70FF
:101D60000820FFF739F80FE0FA231B010920191C9E
:101D7000FEF7F6FF031C07D02E4B1A7802210A4308
:101D80001A700920FFF728F8FA231B010720191CF5
:101D9000FEF7E6FF031C05D0264B5A7804210A43C0
:101DA0005A700EE0234B5A7804231340DBB2002B09
:101DB00002D00720FFF710F81E4B5A7804218A43FF
:101DC0005A701D4B1B78022B14D1002000F036F8FE
:101DD000012000F033F8022000F030F800F050F954
:101DE000042000F02BF8052000F028F8062000F071
:101DF00025F81CE0104B1B78002B11D1002000F0BF
:101E00001DF8012000F01AF8022000F017F800F089
:101E100037F9062000F012F8082000F00FF806E06D
:101E2000054B1B78012B02D1092000F007F8BD46B5
:101E300080BDC046A80100207000002090B583B08E
:101E400000AF021CFB1D1A70FB1D1A78204B92007C
:101E5000D358181C00F02EFC031C1BD1FB1D1A7854
:101E60001C4B9200D358181C00F0E4FD021CFA230E
:101E70001B019A4229D9FB1D1B78181C012100F077
:101E80002DF8FB1D1C7800F0CBFD011C124BA200AD
:101E9000D1501AE0FB1D1A780F4B9200D358181C32
:101EA00000F0C8FD021CFA231B019A420DD9FB1D4C
:101EB0001B78181C002100F011F8FB1D1C7800F0A5
:101EC000AFFD011C034BA200D150BD4603B090BD35
:101ED0000000002018010020F000002080B582B032
:101EE00000AF0A1CFB1D011C1970BB1D1A70FB1DE5
:101EF0001B78092B00D9BCE09A005F4BD3181B68F4
:101F00009F46BB1D1A7801231340D9B25B4B0122B7
:101F10000A4092001978042081430A431A70A8E00D
:101F2000BB1D1A7801231340D9B2544B01220A4039
:101F3000D2001978082081430A431A7099E0BB1D2A
:101F40001A7801231340D9B24C4B01220A401201E6
:101F50001978102081430A431A708AE0BB1D1A7851
:101F600001231340D9B2454B01220A40520119788E
:101F7000202081430A431A707BE0404B1B689B057D
:101F80009B0FDAB202231340D9B23C4B03220A4022
:101F90005978032081430A435A70384B1B689B05CC
:101FA0009B0FDBB21A1CBB1D1B781343DBB21A1C40
:101FB00003231340D9B2314B03220A40597803203E
:101FC00081430A435A7054E02C4B1B689B059B0FBE
:101FD000DAB201231340D9B2284B03220A405978C0
:101FE000032081430A435A70244B1B689B059B0FB7
:101FF000DBB2DAB2BB1D1B785B00DBB21343DBB292
:10200000DBB21A1C03231340D9B21C4B03220A4033
:102010005978032081430A435A702AE0BB1D1A787D
:1020200001231340DAB2154BD20118787F21014009
:102030000A431A701DE0BB1D1A7801231340D9B260
:102040000E4B01220A40D2005978082081430A43EE
:102050005A700EE0BB1D1A7801231340D9B2074B0A
:1020600001220A40D2005978082081430A435A705D
:10207000C046BD4602B080BD50490000A801002006
:1020800080B500AF184BDB68181C00F013FB031C75
:10209000012B13D1154BDB68181C00F0CBFC021C84
:1020A000FA231B019A421CD903200121FFF716FFD6
:1020B00000F0B6FC021C0E4BDA6012E00C4BDB6841
:1020C000181C00F0B7FC021CFA231B019A4208D925
:1020D00003200021FFF702FF00F0A2FC021C034BCB
:1020E000DA60BD4680BDC046000000201801002017
:1020F000F000002080B500AF474B1B78012B0AD1C0
:10210000464B1A7804231340DBB2002B01D0002386
:102110007EE001237CE0404B1B78022B00D076E070
:102120003E4B1A7810231340DBB2002B04D03B4BFC
:102130001A7840218A431A70384B1A7808231340C2
:10214000DBB2002B06D0354B1A7804231340DBB2E8
:10215000002B0DD1314B1A7804231340DBB2002B36
:102160000DD12E4B1A7808231340DBB2002B06D07A
:1021700080235B01181C00F03FFB012348E0274B44
:102180001A7804231340DBB2002B0DD0234B1A78AE
:1021900008231340DBB2002B06D180235B01181CFF
:1021A00000F0ECFA002333E01C4B1A7804231340B0
:1021B000DBB2002B24D1194B1A7808231340DBB271
:1021C000002B1DD1154B1A7810231340DBB2002BC6
:1021D00016D1124B1A7820231340DBB2002B0BD000
:1021E0000E4B1A7840210A431A7080235B01181C99
:1021F00000F0C4FA00230BE000F012F8031C07E023
:1022000080235B01181C00F0F7FA012300E0FFE7D0
:10221000181CBD4680BDC04670000020A8010020EB
:1022200080B500AF1A4B1A7840231340DBB2002B65
:1022300020D0174B1A7810231340DBB2002B19D192
:10224000134B1B787F229343DBB2002B06D08023F5
:102250005B01181C00F092FA002316E00C4B1A7870
:1022600040218A431A7080235B01181C00F0C4FAD5
:1022700001230AE0064B1A7840218A431A70802312
:102280005B01181C00F0B8FA0123181CBD4680BD84
:10229000A801002080B584B000AF0023BB60FFF729
:1022A000A3FB031C1A1C3E4B9A4200D074E03D4B2A
:1022B000181C00F083F800F0B3FB031CFB60C04661
:1022C000FB68181C00F0B6FB021C374B9A42F7D98A
:1022D00000F0A6FB031CFB60344B7B600023BB605B
:1022E0001AE07A68BB68D318181C00F067F8FB681E
:1022F000181C00F09FFB021CC8239B019A420BD9BB
:10230000BB680133BB60BB680D2B01D90023BB60E8
:1023100000F086FB031CFB60FA23DB010620191C7E
:10232000FEF71EFD031CDCD0214B181C00F046F804
:10233000C0460620FEF738FC031CFAD10023BB6020
:1023400000E0C0461B4BBA689200D358181C00F03E
:1023500035F8FA23DB010220191CFEF701FD031CEE
:102360000AD00220FEF738FDBB680133BB60BB68B2
:10237000022B01D90023BB60FA23DB010720191CC3
:10238000FEF7EEFC031CDCD0C046BB68DAB20A4B99
:102390001A70FFF70FFB00E0C046BD4604B080BDD9
:1023A000FFFF0000984900007FA90300A04900003A
:1023B00090490000280000207000002080B582B005
:1023C00000AF78607B681A780C4B1A717B68013318
:1023D0001A780A4BDA707B6802331A78074B9A70C6
:1023E0007B6803331A78054B5A707B6804331A787C
:1023F000024B1A70BD4602B080BDC0468C01002061
:1024000080B586B000AF5D4B1B78012B03D05B4BD2
:102410001B78022B04D112233B61594BFB600DE06A
:10242000564B1B78002B09D117233B61554BFB60A2
:1024300080231B04181C012101F022FA85239B052F
:10244000181C012101F01CFA3B1C00221A723B1CD3
:1024500001229A723B1C03225A723B1C00221A7101
:102460003B1C00225A713B1C00229A713B1C00222B
:10247000DA713B1C00229A703B1C0122DA700023A7
:102480007B6140E07A69131C5B009B189B00FA6833
:10249000D3181B7A0122111C99400B1C9AB23B1CC9
:1024A0001A807B6901229A4080235B029A4214D0F1
:1024B0007B6901229A4080239B029A420DD07B695E
:1024C00001229A408023DB039A4206D07B690122D5
:1024D0009A4080231B049A4202D13B1C01229A712C
:1024E0007A69131C5B009B189B00FA68D3185A6822
:1024F0003B1C101C191C01F0FDF83B1C00229A71BA
:102500007B6901337B617A693B699A42BAD33B1C90
:1025100001229A703B1C0022DA7000237B6121E0CB
:1025200019487A690821131C5B009B189B00C3188B
:102530005B181B780122111C99400B1C9AB23B1CA2
:102540001A8011497A69131C5B009B189B00CB18F9
:1025500004331A683B1C101C191C01F0CBF87B6972
:1025600001337B617B690F2BDAD9002000F006F97B
:102570000023181CBD4606B080BDC0467000002078
:102580002C4C0000044D00006C4B000080B582B064
:1025900000AFFB1D05221A70084B1A68FB1D1B7843
:1025A000111CD9400B1CD9B2BB1D0F220A401A7056
:1025B000BB1D1B78181CBD4602B080BD00800B40BF
:1025C00080B582B000AFFB1D09221A70084B1A6853
:1025D000FB1D1B78111CD9400B1CD9B2BB1D072257
:1025E0000A401A70BB1D1B78181CBD4602B080BD86
:1025F00000800B4098B500AF012000F05BF8031C91
:102600009CB2022000F056F8031C9BB25B009BB208
:1026100023439CB2042000F04DF8031C9BB29B00A6
:102620009BB223439CB2082000F044F8031C9BB2E9
:10263000DB009BB223439CB2102000F03BF8031C4C
:102640009BB21B019BB223439CB2202000F032F8C6
:10265000031C9BB25B019BB223439CB2402000F061
:1026600029F8031C9BB29B019BB223439CB28020A0
:1026700000F020F8031C9BB2DB019BB223439CB209
:1026800080235B00181C00F015F8031C9BB21B0292
:102690009BB223439CB280239B00181C00F00AF8D5
:1026A000031C9BB25B029BB223439BB2181CBD462A
:1026B00098BDC04680B584B000AF78602B4B1B78C6
:1026C000012B03D0294B1B78022B02D1284BBB6076
:1026D00005E0264B1B78002B01D1264BBB60002365
:1026E000FB6008E07B685B087B607B68002B06D0A2
:1026F000FB680133FB607B68002BF3D100E0C04630
:10270000FA68131C5B009B189B00BA68D3185B68BF
:102710001968FA68131C5B009B189B00BA68D318F1
:102720001B7A0122101C9840031C0B400CD0FB6844
:102730000122111C99400B1C1A1C0F4B1B681A43D9
:102740000D4B1A6001230CE0FB680122101C98401D
:10275000031CDB431A1C084B1B681A40064B1A600B
:102760000023181CBD4604B080BDC0467000002088
:102770002C4C0000044D00009C01002090B585B059
:1027800000AF78600023FB602CE07A6801231340DF
:1027900022D01749FA68131C5B009B189B00CB18CA
:1027A00004331A68124CF96808200B1C5B005B1894
:1027B0009B00E3181B181B780121081C9840031C80
:1027C0001362FB680122111C99400B1C1A1C094B57
:1027D0001B681A43074B1A607B685B087B60FB68C9
:1027E0000133FB607B68002BCFD1BD4605B090BDA7
:1027F0006C4B0000A001002090B585B000AF786060
:102800000023FB602DE07A680123134023D0184990
:10281000FA68131C5B009B189B00CB1804331A68E2
:10282000134CF96808200B1C5B005B189B00E31835
:102830001B181B780121081C9840031C5362FB687D
:102840000122111C99400B1CDB431A1C094B1B680D
:102850001A40084B1A607B685B087B60FB68013399
:10286000FB607B68002BCED1BD4605B090BDC04655
:102870006C4B0000A001002080B582B000AF021CAC
:10288000FB1D1A70064BFA1D1278111C1F220A40FC
:102890000121081C9040021C1A60BD4602B080BD98
:1028A00000E100E080B588B000AF254B00221A603F
:1028B0008023DB01181C012100F0E2FF3B1C0022F9
:1028C0001A603B1C40229A803B1C19229A603B1CD8
:1028D00000229A813B1C0022DA813B1C00221A82D2
:1028E0003B1C00225A823B1C00229A82154A3B1C48
:1028F000101C191C00F0E2FF124B181C002101F003
:10290000A9F8104B181C0221012201F065F80D4BAB
:10291000181C012101F00AF80E20FFF7ADFF0A4B49
:102920001B78012B02D100F093F805E0064B1B78D1
:10293000002B01D100F020F9BD4608B080BDC04693
:10294000B4010020000007407000002080B582B074
:1029500000AF2B4B2A4A526D02218A435A65294BFC
:102960001B685A1C274B1A60274B1B78013B274AD0
:10297000D35C7B607B684022D21A254B1B689A424D
:1029800008D8244B1B781A1C234B9200D358181CD0
:10299000FFF732FF1E4B1B68402B28D11D4B1B78C5
:1029A0000133DAB21B4B1A701A4B1B78042B02D975
:1029B000184B00221A70174B1B781A1C164B9200EA
:1029C000D358DAB2134B1B781449CB5C101C191C7A
:1029D000FEF794FE0F4B1B781A1C0F4B9200D35836
:1029E000181CFFF7CBFE0A4B00221A6004E0084BCC
:1029F0001B685A1C064B1A60BD4602B080BDC0461B
:102A000000000740B4010020340000202C4E0000DC
:102A10005001002054010020184E00008C010020BD
:102A200080B500AF024B1B68181CBD4680BDC04678
:102A3000B401002080B582B000AF7860034B1A6803
:102A40007B68D31A181CBD4602B080BDB4010020BB
:102A500080B592B000AFD223DB03181C012100F037
:102A60000FFF3B1D02221A723B1D01229A723B1D71
:102A7000802252001A80364A3B1D101C191C00F09F
:102A800039FE3B1D03221A723B1D01229A723B1D27
:102A900001221A802F4A3B1D101C191C00F02AFE2F
:102AA0002D4B2D4AD269802109030A43DA612A4B52
:102AB000294A926A9A62284B274A926A8021C9045D
:102AC0000A439A62254B00221A60244BFA22920094
:102AD0005A60224B012252429A60204B204ADA600F
:102AE0001E4B204ADA621D4B0022DA631B4B072281
:102AF000DA661A4B1C4A9A650D20FFF7BDFE164B8D
:102B0000154A526A8021C9040A435A62174B0022AF
:102B10001A60164BFA2292005A60144B012252425C
:102B20009A60124B124ADA60104B802212021A622B
:102B30000E4B00221A630D4B05221A660B4B0D4AF1
:102B40009A651020FFF798FEBD4612B080BDC046C2
:102B500000800A4000000B40000002400080094055
:102B60000107000030800000000101000000084063
:102B7000010400002120000080B592B000AFA02326
:102B80009B03181C012100F07BFE3B1D02221A72E0
:102B90003B1D01229A723B1DA822D2001A80254AB1
:102BA0003B1D101C191C00F0A5FD234B224AD269C5
:102BB000802109030A43DA611F4B1F4A926A9A6215
:102BC0001D4B1D4A926A8021C9040A439A621B4B1D
:102BD00000221A60194BFA2292005A60174B012208
:102BE00052429A60154B164ADA60144B154ADA6263
:102BF000124B0022DA63114B0722DA660F4B124A9E
:102C00001A620E4B00221A630C4B05221A660B4BFC
:102C10000E4A5A62094B00225A63084B06225A6632
:102C2000064B0B4A9A650D20FFF726FEBD4612B0F3
:102C300080BDC04600800A4000000240008009407C
:102C400001050000338000000380000020800000A8
:102C50006061010080B582B000AF2B4B181C2021B1
:102C600000F0D8FE031C012B21D1284B80225201F9
:102C70001A62254B181C202100F09EFE224B181CC6
:102C8000002100F071FE021C214B1A60214B012231
:102C90001A6000237B6002E07B6801337B607A6806
:102CA0001D4B9A42F8D9194B802252015A62164A9A
:102CB00080239B01101C191C00F0ACFE031C012B8F
:102CC00011D1114A80239B01101C191C00F074FEC5
:102CD0000D4B181C002100F05BFE021C0F4B1A600C
:102CE0000F4B01221A60084B181C012100F092FEC4
:102CF000031C012B04D1044B181C012100F05CFEC5
:102D0000BD4602B080BDC0460000084000800B40B8
:102D10004001002048010020E7030000440100209A
:102D20004C01002090B583B000AF9F4B1B78012B66
:102D30004FD19E4A80235B00101C191C00F06AFED4
:102D4000031C012B19D19A4B802252011A62974A17
:102D500080235B00101C191C00F02EFE934B181CE6
:102D6000032100F001FE021C924B1A60924B0122DB
:102D70001A608F4B802252015A628C4A80235B0278
:102D8000101C191C00F046FE031C012B11D1874AB0
:102D900080235B02101C191C00F00EFE834B181CD4
:102DA000032100F0F5FD021C844B1A60844B0122C4
:102DB0001A607E4B181C012100F02CFE031C012B15
:102DC00007D17A4B181C012100F0F6FD7A4B032243
:102DD0001A60754B1B78002B00D0E1E0734B181C78
:102DE000202100F017FE031C012B12D1704B802212
:102DF00052011A626D4B181C202100F0DDFDFFF717
:102E0000DFFB031C1C1CFFF7C1FB031C1A1C6D4BD2
:102E10001A55664A80239B01101C191C00F0FAFD0C
:102E2000031C012B15D1614A80239B01101C191C26
:102E300000F0C2FD5D4B181C002100F0A9FD021C32
:102E40005E4B1A605E4B02221A60594B802252017F
:102E50005A62564A80235B00101C191C00F0DAFDF0
:102E6000031C012B2AD1524B802292011A624F4A35
:102E700080235B00101C191C00F09EFD4C4B4C4A3B
:102E80005268F02149000A435A60FC1DFFF798FB85
:102E9000031C2370FB1D1A78BB1D4B498A5C1A70FA
:102EA000434BBA1D1278D24352015A62404BBA1DAD
:102EB000127852011A62404B01221A603B4A802369
:102EC0005B02101C191C00F0A5FD031C012B1BD17B
:102ED000364A80235B02101C191C00F06DFD334B39
:102EE000181C032100F054FD021C344B1A60304BB7
:102EF0002F4A5168354A0A405A602D4B8022920170
:102F00005A622F4B01221A60284B181C402100F0F6
:102F100081FD031C012B13D1244B181C402100F010
:102F20004BFD224B181C012100F032FD021C214BED
:102F30001A60214B01221A601D4B8022D2011A62B5
:102F40001A4A8023DB01101C191C00F063FD031CCE
:102F5000012B15D1154A8023DB01101C191C00F030
:102F60002BFD124B181C012100F012FD021C134B0B
:102F70001A60134B01221A600D4B8022D2015A6253
:102F80000A4B181C012100F045FD031C012B07D141
:102F9000064B181C012100F00FFD074B03221A609D
:102FA000BD4603B090BDC0467000002000800940BF
:102FB00000800B4040010020480100204401002017
:102FC0004C010020AC010020940100201FFEFFFFF7
:102FD00080B500AF024B01221A60BD4680BDC046DD
:102FE000B801002080B582B000AF021CFB1D1A7032
:102FF000064BFA1D1278111C1F220A400121081CE1
:103000009040021C1A60BD4602B080BD00E100E0A5
:1030100080B582B000AF021CFB1D1A70064AFB1D72
:103020001B78191C1F230B40012199408023D1508C
:10303000BD4602B080BDC04600E100E080B584B06E
:1030400000AF021CFB1D1A70FB1D1B782C225A437B
:10305000134BD318BB6080231B03FB60BB685B7EF4
:10306000002B03D1BB689B7E002B07D0BB680122DD
:103070001A70FB6802221343FB6002E0BB68002267
:103080001A70BB6800225A70FB1D1A78FB68101C6E
:10309000191C00F09BFA0023181CBD4604B080BD2B
:1030A000D401002080B584B000AF0A1CFB1D011CB8
:1030B0001970BB1D1A70FB1D1B782C225A43164B2E
:1030C000D318BB600023FB60BB1D1B78012B05D10F
:1030D000FB1D1B78002B01D1012318E0BB1D1B78C1
:1030E000012B03D0BB689B7E002B08D0BB68BA1DA8
:1030F00012785A70BB6805221A700A23FB60FB1D08
:103100001A78FB68101C191C00F060FA0023181CC8
:10311000BD4604B080BDC046D4010020B0B58AB021
:1031200000AF021C3960FB1D1A703B1C27330022C4
:103130001A703B1C243300221A80FB1D1B78181CBC
:1031400000F036FD031CFB61FB1D1B78181C00F012
:1031500043FD021C03231340BB61FB1D1B78181C9D
:1031600000F0EEFC031C7B61FB1D1B782C225A43F4
:10317000C94BD3183B613A680123134002D03B6925
:1031800001221A763B691B78052B00D9B9E19A0018
:10319000C24BD3181B689F460023BBE17A69022308
:1031A000134000D0A6E13B691B7E002B00D1A1E1BA
:1031B000BB69022B0ED13B695B7E002B0AD03B69B9
:1031C00003221A703B6900225A763B1C27330122E6
:1031D0001A7019E0BB69002B0BD13B699B7E002B59
:1031E00007D03B6904221A703B1C273301221A7056
:1031F0000AE03B1C243301221A80FB1D1B78181C9B
:103200000021FFF74FFF75E174E17A690223134053
:103210004BD13B691B7E002B47D0BB69012B44D1AE
:10322000FA694023134040D03B69DA683B691B6967
:10323000D2183B69DA603B69DA683B699B689A425D
:103240002CD33B6900221A703B69DB69002B0FD03D
:103250003B69DD693B695A683B699B683C1C2434C7
:10326000F91D0978081C111C1A1CA847031C23808F
:103270003B1C24331B88002B09D13B691B78002B96
:1032800046D1FB1D1B78181CFFF7D8FE40E0FB1D44
:103290001B78181C0021FFF705FF39E0FB1D1B7888
:1032A000181C012100F03AF932E0FA690F231340AB
:1032B00000D121E13B6900221A703B699B6A002B17
:1032C0000BD03B699D6A3C1C2434FB1D1878F969BE
:1032D000BA697B69A847031C23803B1C24331B88E5
:1032E000002B0ED13B691B78002B00D004E13B6919
:1032F00002221A70FB1D1B78181C002100F00EF929
:10330000FAE0FB1D1B78181C0021FFF7CBFEF3E051
:10331000C046F1E07A690223134000D0EEE03B6939
:103320001B7E002B00D1E9E03B1C273300221A70E2
:10333000FB1D1B78181C00F091FC031CFB60002394
:103340003B6211E03B695A683B69D9683B6ACB181C
:10335000D418FB1D1B78181C00F06EFC031CDBB29C
:1033600023703B6A01333B623A6AFB689A42E9D3B5
:10337000FB1D1B78181C012100F086FC3B69DA68F4
:10338000FB68D2183B69DA603B69DA683B699B6885
:103390009A422DD33B6900221A703B691B6A002BAD
:1033A0000FD03B691D6A3B695A683B69DB683C1C6E
:1033B0002434F91D0978081C111C1A1CA847031C89
:1033C00023803B1C24331B88002B0AD13B691B78CC
:1033D000002B00D092E0FB1D1B78181CFFF72EFE7F
:1033E0008CE0FB1D1B78181C0021FFF75BFE85E0BD
:1033F000FB1D1B78181C022100F0E8F87EE03B69F9
:103400001B7E002B5CD0FB1D1B78181C00F026FCDB
:10341000031CFB60FB68082B42D100233B620EE0DB
:103420003B695A693B6AD418FB1D1B78181C00F0D5
:1034300003FC031CDBB223703B6A01333B623A6A34
:10344000FB689A42ECD3FB1D1B78181C012100F08D
:103450001BFC3B695A6A3B695B693C1C2434F91DBF
:103460000978081C191C9047031C23803B1C24333B
:103470001B88002B09D13B691B78042B20D1FB1D35
:103480001B78181CFFF7DAFD1AE0FB1D1B78181CCF
:103490000021FFF707FE13E0D4010020384E0000A2
:1034A000FB1D1B78181C012100F0EEFB3B1C243394
:1034B00001221A80FB1D1B78181C0021FFF7F2FD6A
:1034C0003B1C273300221A701BE07A690223134049
:1034D00016D13B695B78012B06D1FB1D1B78181CAC
:1034E0000121FFF7DFFD0BE0FB1D1B78181CFFF728
:1034F000A5FD05E0C04604E0C04602E0C04600E08D
:10350000C0463B1C27331B78002B00D03AE63B1CFF
:1035100024331B88181CBD460AB0B0BD80B586B0E8
:1035200000AF0A1CFB1D011C1970BB1D1A70FB1D8E
:103530001B782C225A43244BD3183B61FB1D1B786C
:10354000181C012100F0CCFBBB1D1B78012B02D005
:10355000022B06D00CE0FB1D1B78181C00F0D6FBDC
:1035600006E0FB1D1B78181C042100F0FBFAC04686
:103570003B6999683B69DA683B691B69D2180B1C87
:10358000934200D9131CFB603B69DB687B610DE053
:103590003B695A687B69D3181B78FA1D1278101C96
:1035A000191C00F087FB7B6901337B617A69FB683A
:1035B0009A42EDD3FB1D1B78181C022100F006F87F
:1035C000BD4606B080BDC046D401002080B584B0A1
:1035D00000AF021C3960FB1D1A70FB1D1B782C22EA
:1035E0005A43094BD318FB601F2000F017FBFB6800
:1035F00000221A76FB1D1A783B68101C191C00F07B
:10360000B1FABD4604B080BDD401002080B500AF42
:10361000034B03221A700023181CBD4680BDC04610
:10362000C001002090B585B000AF3B1C0A330022DA
:103630001A800220FFF7ECFC1B4B1B68002B2CD1DF
:10364000194B01221A6000F0DDFA031C7B607A68D6
:103650000423134005D03C1C0A34FFF7D7FF031C9A
:1036600023800023FB6009E0FB68DAB27B68101C52
:10367000191CFFF753FDFB680133FB60FB68032B4C
:10368000F2D97B6821229343181C00F0C7FA064B3D
:1036900000221A600220FFF7A5FC3B1C0A331B889E
:1036A000181CBD4605B090BD5801002080B500AF84
:1036B000FFF7B8FFBD4680BD80B584B000AF021CE7
:1036C000FB1D1A700A4B1B68FB60FB1D1B78002B4F
:1036D00004D0FB6801221343FB6003E0FB68012276
:1036E0009343FB60024BFA681A60BD4604B080BD8C
:1036F0000080084080B58EB000AF786039607B688C
:103700005B687B637B689B683B637B68DB68FB6211
:103710007B681B69BB627B685B697B627B689B69BA
:103720003B627B68DB69FB6100237B6101233B61BA
:103730000323FB60514BBB603B681B88BB6181E08E
:10374000BA69012313406ED03B69DB437A6B1A40A0
:103750003B689B78191C7B69081C9840031C134329
:103760007B63FB68DB433A6B1A403B681B7A191C8E
:103770007B695B00081C9840031C13433B633B6957
:10378000DB43FA6A1A403B689B7A191C7B69081C68
:103790009840031C1343FB62BB68DB43BA6A1A40C0
:1037A0003B68DB78191C7B691033081C9840031CAC
:1037B0001A433B681B79191C7B69081C9840031C41
:1037C0001343BB62BB68DB437A6A1A403B685B7990
:1037D000191C7B691033081C9840031C1A433B6872
:1037E0009B79191C7B69081C9840031C13437B625E
:1037F000FB68DB433A6A1A403B685B7A191C7B69B9
:103800005B00081C9840031C13433B623B69DB438D
:10381000FA691A403B68DB79191C7B69081C9840DF
:10382000031C1343FB613B695B003B61FB689B002E
:10383000FB60BB685B00BB607B6901337B61BB697C
:103840005B08BB61BB69002B00D079E77B687A6BB2
:103850005A607B683A6B9A607B68FA6ADA607B68C8
:10386000BA6A1A617B687A6A5A617B683A6A9A61B5
:103870007B68FA69DA61BD460EB080BD01000100C7
:1038800080B582B000AF78600A1CFB1C1A70FB1C6C
:103890001B78002B06D0084B074AD1697A680A4387
:1038A000DA6106E0044B044AD2697968C9430A40E8
:1038B000DA61BD4602B080BD0000024080B584B030
:1038C00000AF786039603B681A687B681A603B68B3
:1038D0009B881A1C7B685A603B689A687B689A6070
:1038E0003B689B891A1C3B68DB89D2183B681B8AA2
:1038F000D2183B685B8AD2183B689B8AD318FB605E
:103900007B68FA68DA603B68DB8A1A013B681B8BCC
:10391000D2183B685B8BD2183B689B8BD318BB607B
:103920007B68BA681A65BD4604B080BD80B584B0B6
:1039300000AF78600A1CFB1C1A707B68DB68FB60B8
:10394000FB1C1B78002B04D0FB6801221343FB6097
:1039500003E0FB6801229343FB607B68FA68DA604E
:10396000BD4604B080BDC04680B584B000AF78606D
:1039700039607B681A1C10323B689B00D318FB60CF
:10398000FB681B68BB60BB68181CBD4604B080BDEB
:1039900080B584B000AF786039607B681A1C7032E3
:1039A0003B689B00D318FB60FB681B68BB60BB686F
:1039B000181CBD4604B080BD80B582B000AF7860F1
:1039C00039607B685B6D3A68D2431A407B685A6500
:1039D000BD4602B080BDC04680B586B000AFF8607D
:1039E000B960FB1D1A70FB689B6D7B61FB1D1B782A
:1039F000002B04D07A69BB6813437B6104E0BB6889
:103A0000DA437B6913407B61FB687A699A65BD463E
:103A100006B080BD80B584B000AF786039607B6847
:103A20005A6D7B689B6D13403A681340BB60BB685E
:103A3000002B04D13B1C0F3300221A7003E03B1C07
:103A40000F3301221A703B1C0F331B78181CBD4624
:103A500004B080BD80B584B000AF786039607A680A
:103A6000304B9A4203D1304B9B6AFB6002E02E4BF5
:103A70005B6AFB607A682D4B9A420DD1FB68FF228E
:103A80009343FB60FA683B681343FB60FB6880224A
:103A900052041343FB6037E07A68254B9A420ED1FB
:103AA000FA68244B1340FB603B681B02FA6813431F
:103AB000FB60FB68802292041343FB6024E07A6879
:103AC0001D4B9A420ED1FA681C4B1340FB603B68B9
:103AD0001B04FA681343FB60FB688022D204134383
:103AE000FB6011E07A680F4B9A420DD1FA68134BD4
:103AF0001340FB603B681B04FA681343FB60FB68E0
:103B00008022D2041343FB607A68064B9A4203D1A9
:103B1000054BFA689A6202E0034BFA685A62BD46A6
:103B200004B080BD00800940000002400000074052
:103B300000800740FF00FFFF00000840FFFF00FF7C
:103B400080B582B000AF021CFB1D1A70044BFA1D39
:103B5000127810321201D358181CBD4602B080BD35
:103B60000000014080B584B000AF021C3960FB1D2D
:103B70001A700E4BFA1D127810321201D358FB60E6
:103B80003B681B041B0CFA681343FB603B681B0C6F
:103B9000DA43FB681340FB60044BFA1D12781032C5
:103BA0001201F968D150BD4604B080BD000001404B
:103BB00080B582B000AF021CFB1D1A70054AFB1DC8
:103BC0001B7810331B01D3185B68181CBD4602B06C
:103BD00080BDC0460000014080B582B000AF021C2D
:103BE000FB1D1A700649FB1D1A7884235B00120125
:103BF0008A18D3181B68181CBD4602B080BDC04689
:103C00000000014080B500AF034AA4235B00D358F5
:103C1000181CBD4680BDC0460000014080B582B082
:103C200000AF7860034AA4235B007968D150BD4699
:103C300002B080BD0000014080B582B000AF021C20
:103C4000FB1D1A70044BFA1D12780332D201D358AF
:103C5000181CBD4602B080BD0000014080B582B096
:103C600000AF021CFB1D1A700649FB1D1A78C42305
:103C70005B00D2018A18D3185B68181CBD4602B0DD
:103C800080BDC0460000014080B582B000AF021C7C
:103C90003960FB1D1A700649FB1D1A78C8235B00AA
:103CA000D2018A18D3183A681A60BD4602B080BDA6
:103CB0000000014080B582B000AF021C3960FB1DDE
:103CC0001A700649FB1D1A78E0235B00D2018A189E
:103CD000D3183A681A60BD4602B080BD00000140AA
:103CE00080B582B000AF021C3960FB1D1A70064916
:103CF000FB1D1A78E8235B00D2018A18D3183A68B2
:103D00001A60BD4602B080BD0000014080B584B09D
:103D100000AF021CFB1D1A700A4BFA1D12781032FC
:103D20001201D358FB60FB6804225340FB60054B33
:103D3000FA1D127810321201F968D150BD4604B054
:103D400080BDC04600000140FDF790FD0E490F4ABE
:103D50000F4B00F011F80F490F4A104B00F00CF810
:103D60000F49104A0020521A02DD043A8850FCDC48
:103D700000F082F8FFF7E8FF9B1A03DD043BC85808
:103D8000D050FBDC70470000904E00000000002087
:103D90003C000020CC4E0000000010204805102000
:103DA0003C00002084020020FEE7C04680B586B0BB
:103DB00000AF2D4BDA680223134002D02B4B7B61FE
:103DC00001E02A4B7B61284BDA680123134002D0C3
:103DD0007B695B087B617B693B61234BDA68042369
:103DE00013400AD0204B5B681A0A0F23134001339B
:103DF000BB603B69BA6853433B611B4BDB681A0AE3
:103E000003231340012B07D002D3022B20D024E040
:103E1000174B164A1A6024E0134BDB681A090F236C
:103E200013407B607A68082313400BD07A6807231D
:103E300013407B607B6801333A69111CD9400B1C2D
:103E4000FB6001E03B69FB60094BFA681A6008E01F
:103E5000074B802212021A6003E0054B054A1A60E4
:103E6000C046BD4606B080BD0000024000127A0088
:103E700038000020409C000080B500AF0F4B104A76
:103E8000DA610E4BDB680D4B0022DA600B4B5B688E
:103E90000A4B00225A60094B9B68084B00229A602B
:103EA000064B1B69054B00221A61044B5B69034BEF
:103EB00000225A61FFF77AFFBD4680BD0000024034
:103EC00010000008002934D00123002210B48842D9
:103ED0002CD301242407A14204D2814202D2090139
:103EE0001B01F8E7E400A14204D2814202D249005A
:103EF0005B00F8E7884201D3401A1A434C08A042FD
:103F000002D3001B5C0822438C08A04202D3001B92
:103F10009C082243CC08A04202D3001BDC082243A9
:103F2000002803D01B0901D00909E3E7101C10BCCD
:103F30007047002801D00020C04307B4024802A106
:103F40004018029003BDC046190000000029F0D0BF
:103F500003B5FFF7B9FF0EBC4243891A1847C046A4
:103F60007047C0469E2110B5C905041C00F0B2FB85
:103F7000002803D1201C00F005FB10BD9E21C905BF
:103F8000201C00F01FF900F0FDFA80231B06C0186A
:103F9000F3E7C046F0B55F4656464D464446F0B49A
:103FA0004502440083B00E1C6D0A240EC70F002C7E
:103FB00007D1002D00D075E00421012289469246E8
:103FC00009E0FF2C37D080231B0400211D43ED00A6
:103FD0007F3C89468A46311C48007602C90F760A22
:103FE000000E8B462ED101239C46002E66D15A46E8
:103FF0007A406346494601920B430F2B33D9201A6E
:1040000080466B017601B34200D299E09B1B1A20D7
:1040100001220125DC0F52005B00B34201D2002CCB
:1040200001D09B1B2A4301380028F3DC1D1C6B1EAA
:104030009D4115435BE0002D2FD1082202239146BC
:104040009A46C8E7FF2822D0002280231B0494460A
:104050005A461E437A4063464946F6007F3801922D
:104060000B430F2BCBD854499B00CB589F46019A4A
:10407000FF2000256D02C105680AD20708431043DE
:1040800003B03CBC90469946A246AB46F0BD321CFC
:10409000531E9A4102329446A9E70C230321994604
:1040A0008A4698E7281C00F01FFB7624431F9D409A
:1040B00064420023241A99469A468CE7301C00F08B
:1040C00013FB431F9E4076235B420021181A8C4647
:1040D0008DE70022394DFF20CCE75946351C019170
:1040E0006246022AC3D0032A5ED0012A3ED040464F
:1040F0007F30002830DD0F232B40042B00D0043507
:10410000290103D52E4B40461D408030FE28AEDCF1
:10411000AD016D0AC0B2019AACE700200025A9E705
:104120008023DB031D4211D01E420FD11D1C3543DD
:104130006D026D0A5A46FF209CE701975246D0E770
:104140000122524290441B20002262E71D436D026F
:104150006D0A3A1CFF208DE77E235B4242469B1A84
:104160001B2B08DD019A0020002583E7019B00201E
:104170001A4000257EE7281CD84043469E339D40C8
:104180002B1C5D1EAB4103430F221A40042A00D0B2
:104190000433590103D5019A012000256AE79D01E6
:1041A0006D0A019A002065E78026F60335436D020B
:1041B0006D0A019AFF205DE7504E0000FFFF7F006F
:1041C000FFFFFFF7F0B543024E029B09B609450019
:1041D0004C004746C20F9C467042704180B42D0E81
:1041E000240EC90F00282FD1FF2C2DD18A422FD0A9
:1041F0002F1B002F00DC8FE0002C40D100284ED078
:10420000681C63462C1C171C0F251D40042D00D074
:10421000043301223A40590106D5FF2800D18DE030
:10422000B349041C0B400130C0B2DB0801286BDD30
:104230005B025B0AE4B25802E405400AD20720435D
:10424000104304BC9046F0BD012359408A42CFD1AF
:10425000291B002900DC8AE0002C43D0FF2D4DD023
:104260008023DB041E4301231B2900DCE2E06344BE
:104270002C1C590100D58DE0601C171CC4E7FF2DD4
:104280003CD08023DB041E4301231B2F5EDD6146EF
:10429000CB1A2C1C171C5A010AD4601CB4E7013F2E
:1042A000002F73D16046831B2C1C171C5A01F4D5B8
:1042B0009B019B099846404600F016FA4246053895
:1042C000824084423DDC041B611C131CCB40191C42
:1042D0001F231B1B9A40131C5A1E93410B430120A2
:1042E000002491E7002800D08AE70139002903D192
:1042F000604633182C1CBCE7FF2DB4D180206346E8
:10430000171C4000FF247FE7002B93D0002C2BD0FC
:104310008020C00303438BE7002F48D16B1CDBB226
:10432000012B00DC90E063469B1B98465B0158D54F
:104330006046301A80462C1C0F1CBCE7FF2400236B
:1043400079E76B4B241A1340601C5DE72023DB1BCD
:10435000311C9E40331CF9405E1EB3410B43614645
:10436000CB1A2C1C171C96E75B025B0A63E700293B
:1043700076D16C1CE3B2012B4ADDFF2C00D191E019
:10438000604633185B08A81C171C3DE7FF2D00D0C2
:104390007AE7B3E7611CFF2935D0554D012018405D
:1043A0002B405B080343171CA01C0C1C2CE77F420E
:1043B000002D1ED0FF2C69D080236246DB041A43F7
:1043C000944601231B2F09DC2023DB1B6046984009
:1043D0006246031CFA40581E83411343F31A0F1C14
:1043E00064E7414600290BD1002201200423002468
:1043F00011E76246002A4FD1601C331C0F1C03E7F3
:104400002C1C171C57E78020FF244000042302E7E0
:10441000002D00D087E06346002B00D1A6E00028E5
:104420007CD1F31858017AD53149171C0B40022072
:104430000124E9E620235B1A301C9E40331CC8404F
:104440005E1EB341034312E76346002D12D1002BD9
:1044500042D10028C8D1331C0F1C01200024D3E610
:104460004942002D22D16346002B7AD1601C331CB7
:10447000171CC9E6002B3FD1002807D0802000225E
:1044800040001C4BFF24C6E6FF2C9AD18020331C31
:104490000F1C4000FF24B7E6013F002FF4D1B31AF0
:1044A0000F1C03E7802040000423B4E6FF2C52D009
:1044B00080236046DB041843844601231B2909DC62
:1044C000604620235B1AC840614699400B1C591E68
:1044D0008B4103439B19CCE600281FD19B1B58013D
:1044E0004BD56246B31A0F1C012000248CE6C0464F
:1044F000FFFFFFFBFCFFFF03002800D0FEE680204B
:10450000DB08C003034236D0F608064233D1331C21
:104510000F1C8020DB004000FF2475E66346171C5B
:104520000120002470E66146002914D0002800D044
:10453000E4E68020C908C0030B1C014203D0F30845
:10454000034200D00B1C8020DB00171C4000FF241E
:104550005AE6FF2CB1D18020331C171C4000FF24E9
:1045600052E601390029F4D1F31882E6331C171CF6
:104570000120002448E6171CCBE7002B00D133E7CD
:10458000CDE7C0464302590A4300C20F00B51B0ED7
:1045900000207E2B0DDD9D2B0CDC802000040143D0
:1045A000952B0ADC9620C31AD9404842002A00D134
:1045B000081C00BD024BD018FBE7963B9940F4E77E
:1045C000FFFFFF7F10B5041E37D0201C00F08CF8D1
:1045D0009E231B1A962B09DC083884406402640A67
:1045E000DBB26402DB05600A184310BD992B0ADDBB
:1045F000021C1B32211C91400A1C511E8A410521BC
:10460000091ACC40144305281ADC194A0F2122400C
:104610000C40042C00D00432510105D59F231B1AF5
:10462000FF2B21D012490A40591CC9B2D2080129D6
:1046300009DD5402640ADBB2D3E700230024D0E78B
:10464000421F9440E1E7002A0BD0002B06D08024C3
:10465000E40314436402640ADBB2C2E75402640A4E
:10466000BFE7DBB20024BCE7FF230024B9E7C04664
:10467000FFFFFFFB8446081C6146FFE71FB500F003
:10468000C9F8002801D40021C8421FBD10B500F0B0
:1046900049F84042013010BD10B500F0BBF80028C9
:1046A00001DB002010BD012010BDC04610B500F098
:1046B000B1F8002801DD002010BD012010BDC0466A
:1046C00010B500F05BF8002801DC002010BD0120CF
:1046D00010BDC04610B500F051F8002801DA0020E6
:1046E00010BD012010BDC0461C2101231B049842AF
:1046F00001D3000C10391B0A984201D3000A083973
:104700001B09984201D30009043902A2105C401829
:104710007047C046040302020101010100000000CD
:10472000000000004200F0B54302150E4A025B0A89
:10473000540A4A00160E1A1CC70F501E8241C90F98
:10474000002A12D1002C0AD1A34212D1B54210D1B5
:104750008F4210D0281C451EA8411043F0BD0120F7
:10476000FF2EFBD0A34204D1F0E70120FF2DE9D1B9
:10477000F4E70120F2E70020F0E7C046F0B543027D
:10478000474644004A024D00C00FC90F80B45B0A7F
:10479000240E8446520A2D0E8846002B25D1002A6D
:1047A00035D158425841664266410640574257410A
:1047B00069426941394210D1002E06D1C44519D051
:1047C0006346002B04D1012004E04346002BFAD1BC
:1047D0000120404204BC9046F0BD0020002EF9D1DB
:1047E00063460120002BF5D0F2E7FF2CD7D1022041
:1047F0004042EFE7AC42E3DC04DB9342E0D8002028
:104800009342E7D26346002BE2D00120E2E7FF2D7E
:10481000C7D1ECE7F0B542004E4645465746140E68
:104820004A02E0B44302550A4A005B0AC60F120E60
:10483000C90F002B07D00220FF2C04D11CBC9046CE
:104840009946A246F0BD002D02D00220FF2AF5D0E5
:1048500058425841674267410740BA46684268413A
:104860005742574107420DD15746002F04D0002927
:1048700006D101204042E1E78E420BD0002EF8D154
:104880000120DBE753460020002BD7D10120002E6A
:10489000D4D0EEE79442F1DC03DA002EE9D0012017
:1048A000CCE7AB42EAD80020AB42C7D28642E0D088
:1048B0000120C3E70000000001B40248844601BCA7
:1048C000604700BFF903102001B40248844601BCD0
:1048D000604700BFDD011020CC0B0000E00B0000A2
:1048E000F40B0000080C00001C0C0000300C000051
:1048F000440C0000580C00006C0C0000820C0000FE
:10490000980C0000AE0C00003F0000000600000004
:104910005B0000004F000000660000006D0000001A
:104920007D000000070000007F0000006F00000015
:10493000770000007C000000390000005E000000ED
:10494000790000007100000000000000730000000A
:10495000021F0000201F00003E1F00005C1F00001F
:104960007A1F0000C81F00001C20000072200000F9
:104970003620000054200000111003050100000043
:1049800011100305030000001110040000000000D6
:10499000101010101000000008080808080000009F
:1049A000101010100001020304050607080910107A
:1049B000101000005345474D454E5420494E444980
:1049C0004B41544F522041005345474D454E5420D2
:1049D000494E44494B41544F522042005345474DA4
:1049E000454E5420494E44494B41544F52204300B8
:1049F0005345474D454E5420494E44494B41544F31
:104A0000522044005345474D454E5420494E444999
:104A10004B41544F522045005345474D454E54207D
:104A2000494E44494B41544F522046005345474D4F
:104A3000454E5420494E44494B41544F5220470063
:104A400048472031000000004847203200000000A5
:104A50004847203300000000484720340000000091
:104A60004847203500000000535645544F44494FF5
:104A700044000000544553545F5A415049530000CC
:104A8000544553545F434854454E49450000000087
:104A9000544553545F5348494D0000005341332B54
:104AA000000000005341332D000000005341342B1F
:104AB000000000005341342D000000005341352B0D
:104AC000000000005341352D00000000C7C0CFC8D2
:104AD000D1DC0000CACECDD2D0CECBDC00000000AD
:104AE000D2CBD400D2CBC30044414C4E4959000034
:104AF000424C49474E4959005348415353590000CD
:104B00004D41524B455200004B4F442050552023FD
:104B1000310000004B4F442050552023320000004C
:104B200046554E4354494F4E414C20434F4E5452EC
:104B30004F4C000044505253204155544F4D415466
:104B40000000000044656E2F4E6F63680000000097
:104B5000443000004431000044320000443300007F
:104B6000413000004131000041320000B4490000F2
:104B700000800E4001010000C849000000800E4086
:104B800002010000DC49000000800E40030100002B
:104B9000F049000000800E4004010000044A0000BB
:104BA00000800E4005010000184A000000800E4001
:104BB000060100002C4A000000800E4007010000A2
:104BC000404A000000800E4008010000484A0000F2
:104BD00000800E4009010000504A000000800E4095
:104BE0000A010000584A000000800E400B0100003E
:104BF000604A000000800E400C010000684A00007E
:104C000000000C4008010000744A000000800B40C6
:104C10000C010000804A000000800B400D010000E4
:104C2000904A000000800B400E0100009C4A0000EA
:104C300000800E400D010000A44A000000800E40DC
:104C40000E010000AC4A000000800E400F01000081
:104C5000B44A000000000C4000010000BC4A000003
:104C600000000C4001010000C44A000000000C409C
:104C700002010000CC4A000000000C4003010000CB
:104C8000D44A000000000C4004010000E04A00008B
:104C900000000C4005010000E44A000000000C4048
:104CA00006010000E84A000000000B400C01000073
:104CB000F04A000000000B400D010000F84A00001F
:104CC00000000B400E010000004B000000000B40F4
:104CD0000F010000084B000000000B40080100001D
:104CE000144B000000000B4009010000204B0000A5
:104CF00000000B400A010000344B000000000B4094
:104D00000B0100009C4A000000800E400D010000D5
:104D1000A44A000000800E400E010000AC4A0000D2
:104D200000800E400F010000B44A000000000C405B
:104D300000010000BC4A000000000C40010100001E
:104D4000C44A000000000C4002010000CC4A0000F0
:104D500000000C4003010000D44A000000000C4099
:104D600004010000E04A000000000C4005010000C2
:104D7000E44A000000000C4006010000E84A000080
:104D800000000B400C010000F04A000000000B4046
:104D90000D010000F84A000000000B400E01000069
:104DA000004B000000000B400F010000444B0000CE
:104DB00000000B400A010000344B000000000B40D3
:104DC0000B010000504B000000800B40050100006B
:104DD000544B000000800B4006010000584B0000BF
:104DE00000800B40070100005C4B000000800B407E
:104DF00008010000604B000000800B40090100002A
:104E0000644B000000800B400A010000684B00006A
:104E100000800B400B01000080000000000100003A
:104E2000000200000004000000080000001019202B
:104E3000272C3135383C0000983100009C310000AF
:104E40000A32000014330000FE330000CA340000B0
:104E5000FE3F00006E4000001A410000DA400000F2
:104E60001A410000D24000001A410000DA40000060
:104E70006E4000006E400000D2400000DA400000AA
:104E80003A4100003A4100003A4100002041000050
:104E900000080000000400000010000000200000D6
:104EA000004000000080000000000200000001003F
:104EB0000040000000000200784900008049000026
:0C4EC000884900000100000000127A0088
:104ECC0080B584B000AF78607B68FB6002E0FB6863
:104EDC00013BFB60FB68002BF9D1BD4604B080BDE3
:104EEC0080B586B000AF78603960224B224A1A61D7
:104EFC00204B1A6838231340012213437B613B6813
:104F0C00012B02D180239B0000E000237A6913431C
:104F1C007B61184B7A691A60164B7A685A60154B8C
:104F2C007A69E02149000A431A60124BDB68114B85
:104F3C00DB68104BDB680F4BDB683B617A6938230D
:104F4C0013407B610B4B7A691A600A4B00221A6181
:104F5C007A6803231340DB00FB60FB683A69111C81
:104F6C00D9400B1C3B613B69DBB2181CBD4606B03B
:104F7C0080BDC046008001405155AA8A80B586B0DC
:104F8C0000AF78603960224B224A1A61204B1A68B4
:104F9C0038231340012213437B613B68012B02D160
:104FAC0080239B0000E000237A6913437B61184B3C
:104FBC007A691A60164B7A685A60154B7A69E02147
:104FCC0049000A431A60124BDB68114BDB68104B2B
:104FDC00DB680F4BDB683B617A69382313407B61DC
:104FEC000B4B7A691A600A4B00221A617A68022309
:104FFC001340DB00FB60FB683A69111CD9400B1CA9
:10500C003B613B699BB2181CBD4606B080BDC046D7
:10501C00008001405155AA8A80B584B000AF7860F9
:10502C0039601C4B1C4A1A611A4B1A6838231340FE
:10503C0001221343FB603B68012B02D180239B00B0
:10504C0000E00023FA681343FB60124BFA681A6005
:10505C00104B7A685A600F4BFA68E02149000A43FA
:10506C001A600C4BDB680B4BDB680A4BDB68094B9B
:10507C00DB68BB60FA6838231340FB60054BFA68A9
:10508C001A60044B00221A61BB68181CBD4604B0A0
:10509C0080BDC046008001405155AA8A80B584B0BD
:1050AC0000AF78603960304B304A1A612E4B1A6869
:1050BC003823134001221343FB603B68012B02D1C0
:1050CC0080239B0000E00023FA681343FB60264B0F
:1050DC00FA681A600023BB6035E0234B7968BA6824
:1050EC008A185A60204B00229A60FB688822D200F2
:1050FC001343FB601C4BFA681A600520FFF7E0FEB7
:10510C00FB68802292011343FB60174BFA681A600C
:10511C00174B181CFFF7D4FEFA68164B1340FB60B4
:10512C00114BFA681A600520FFF7CAFEFA68124B99
:10513C001340FB600C4BFA681A600120FFF7C0FEAD
:10514C00BB680433BB60BB680F2BC6D9FA68382325
:10515C001340FB60044BFA681A60034B00221A617F
:10516C00BD4604B080BDC046008001405155AA8A9E
:10517C00409C0000FFFBFFFFBFDFFFFF80B584B04A
:10518C0000AF78602E4B2F4A1A612D4B1A683823CA
:10519C00134001221343FB607B68022B02D1802356
:1051AC009B0000E00023FA681343FB60244BFA6871
:1051BC001A600023BB6033E0214BBA685A60204B65
:1051CC0000229A60FB68C42212011343FB601C4B43
:1051DC00FA681A600520FFF773FEFB6880229201C3
:1051EC001343FB60164BFA681A60174B181CFFF739
:1051FC0067FEFA68154B1340FB60114BFA681A6096
:10520C006420FFF75DFEFA68114B1340FB600C4BFA
:10521C00FA681A600120FFF753FEBB680433BB60C9
:10522C00BB680F2BC8D9FA6838231340FB60044BBA
:10523C00FA681A60024B00221A61BD4604B080BDA8
:10524C00008001405155AA8A409C0000FFFBFFFFE3
:10525C00BFD7FFFF80B588B000AFF860B9607A6047
:10526C00FA6803231340DB00FB61FB697A68111CAD
:10527C0099400B1C7B60FB69FF22111C99400B1C95
:10528C00BB61FA68BB68101C191CFFF7C5FE031C38
:10529C007B61BB69DB437A691A407B68B9690B4057
:1052AC001343F968BA68081C111C1A1C00F038F872
:1052BC00BD4608B080BDC04680B588B000AFF86070
:1052CC00B9607A60FA6802231340DB00FB61FB696A
:1052DC007A68111C99400B1C7B60FB690F4A111CEE
:1052EC0099400B1CBB61FA68BB68101C191CFFF7BA
:1052FC0093FE031C7B61BB69DB437A691A407B68B4
:10530C00B9690B401343F968BA68081C111C1A1CC4
:10531C0000F006F8BD4608B080BDC046FFFF000097
:10532C0080B586B000AFF860B9607A60324B334A12
:10533C001A61BB68012B02D180239B0000E0002383
:10534C00BB602D4B1A68382313407B61BA687B69AC
:10535C001343012213437B61274B7A691A60264B56
:10536C00FA685A60244B7A689A607B6982225201EF
:10537C0013437B61204B7A691A600520FFF7A0FD6F
:10538C007B698022920113437B611B4B7A691A6003
:10539C000A20FFF795FD7B69802213437B61164B36
:1053AC007A691A602820FFF78BFD7B698022934372
:1053BC007B61114B7A691A607A69114B13407B61DE
:1053CC000D4B7A691A600520FFF77AFD7A690D4B4F
:1053DC0013407B61084B7A691A600120FFF770FD5E
:1053EC00054B796938220A401A60034B00221A6176
:1053FC00BD4606B080BDC046008001405155AA8A0A
:08540C00FFEFFFFFBFDFFFFF10
:0400000300003D4D6F
:00000001FF
