:1000000000800020292F0000852F0000E50B000054
:1000100000000000000000000000000000000000E0
:10002000000000000000000000000000852F00001C
:100030000000000000000000852F00005D2200008D
:10004000852F0000852F000039290000852F000032
:10005000852F0000852F0000852F0000852F0000D0
:10006000852F0000852F000091050000852F0000DE
:10007000852F0000852F0000492100005905000050
:10008000852F0000852F0000852F0000852F0000A0
:10009000852F0000852F0000852F0000852F000090
:1000A000852F00000000000000000000852F0000E8
:1000B000852F0000852F0000852F0000852F000070
:1000C00080B584B000AF80235B04181C012102F0CE
:1000D0001DFD3B1D00221A723B1D01225A723B1D61
:1000E0000022DA703B1D00221A713B1D00225A715A
:1000F0003B1D00229A713B1D0022DA713B1D01223B
:100100009A703B1D00229A723B1D80221A80254A5C
:100110003B1D101C191C02F033FC80239B02181C91
:10012000012102F0F3FC204B00221A601E4B1E4AF4
:1001300011681E4A0A401A601B4B1B4A11681C4A70
:100140000A401A60184B184A11681A4A0A401A6085
:10015000154B154A126808218A431A60124B124A3D
:10016000126804218A431A600F4B0F4A1168124A21
:100170000A401A600C4B1B680B4B00221A600A4B9A
:10018000094A11680D4A0A401A60074B064A12686C
:10019000120112091A60012002F0D4FBBD4604B01E
:1001A00080BDC04600000C4000800840FFFFFEFFFD
:1001B000FFF7FFFFFFFDFFFFFF0FFFFFFFFFFFF157
:1001C00080B582B000AF114B104A1168104A0A4046
:1001D0001A600E4B0D4A12681A600C4B0B4A1268DB
:1001E00002210A431A60FB1D00221A7004E0FB1D65
:1001F000FA1D127801321A70FB1D1B780B2BF6D9F1
:10020000024B9B69181CBD4602B080BD00800840AF
:100210000FFEFFFF80B584B000AF78607B68002BD5
:1002200004D13B1C0F3301221A708CE07A688723BB
:100230005B009A4208D97A68464B9A4204D83B1C24
:100240000F3302221A707EE07A68A0239B009A4244
:1002500008D97A68404B9A4204D83B1C0F330322DA
:100260001A7070E07A683D4B9A4208D97A683C4B24
:100270009A4204D83B1C0F3304221A7063E07A6858
:10028000384B9A4208D97A68374B9A4204D83B1CBB
:100290000F3305221A7056E07A68DC23DB009A429D
:1002A00008D97A68314B9A4204D83B1C0F33062296
:1002B0001A7048E07A682E4B9A4208D97A682D4B1A
:1002C0009A4204D83B1C0F3307221A703BE07A682D
:1002D000294B9A4208D97A68284B9A4204D83B1C89
:1002E0000F3308221A702EE07A68254B9A4208D9FB
:1002F0007A68244B9A4204D83B1C0F3309221A70A7
:1003000021E07A68204B9A4208D97A681F4B9A42BA
:1003100004D83B1C0F330A221A7014E07A681C4B75
:100320009A4208D97A681B4B9A4204D83B1C0F3377
:100330000B221A7007E07A68174B9A4203D13B1CD4
:100340000F330C221A703B1C0F331B78181CBD4650
:1003500004B080BDD501000047030000F703000092
:10036000BE0400006D05000034060000A707000071
:10037000570800001E090000C40900008B0A000095
:100380004A0B0000110C0000B20C0000790D0000B7
:10039000330E0000FA0E0000FF0F000080B582B09F
:1003A00000AF021CFB1D1A70064BFA1D1278111CBF
:1003B0001F220A400121081C9040021C1A60BD4601
:1003C00002B080BD00E100E080B500AF00F008F8A9
:1003D00000F040F800F056F800F07CF8BD4680BD13
:1003E00080B500AF8D239B05181C012102F08EFB08
:1003F000144B144A9268A02189050A439A60114B54
:10040000104AD268C021C9010A43DA600D4B0D4A77
:100410009269F02189050A439A610B4B0A4A926856
:100420000A490A439A60084B074AD268FF210A43E7
:10043000DA60054B044A926905490A439A61BD4650
:1004400080BDC04600000C4000000B40AAAA00007E
:10045000FFFF000080B500AF80235B05181C012161
:1004600002F054FB064B00221A60054B00225A6032
:10047000034BFD221A60024B8022DA61BD4680BD2B
:1004800000000E4080B500AF8023DB04181C012162
:1004900002F03CFB0D4B00221A600C4B01225A600B
:1004A0000A4B00229A60094B084A9268C0218905CC
:1004B0000A439A60054B054A126805490A431A60C7
:1004C0000A20FFF76BFFBD4680BDC04600000D400F
:1004D0000FC03F0080B588B000AF80231B02181CFE
:1004E000012102F013FB3B1C00221A603B1C10226E
:1004F0009A803B1C164A9A603B1C00229A813B1C46
:100500000022DA813B1C00221A823B1C00225A8204
:100510003B1C00229A820F4A3B1C101C191C02F043
:1005200013FB0C4B181C002102F082FB094B181C1A
:100530000221012202F05EFB064B181C012102F091
:100540003BFB0F20FFF72AFFBD4608B080BDC04629
:10055000A08601000080074080B500AF084B084A24
:10056000526D02218A435A65064B074A1268DA60C7
:10057000064B1B685A1C054B1A60BD4680BDC04621
:100580000080074000000E40400000203C0000209A
:1005900080B584B000AF3A4BDB689A0B0F23134051
:1005A000FB60374BDA680F231340BB60FB68002BFE
:1005B00043D0FA68012313400CD0314B304A126803
:1005C00001218A431A602E4B2D4A126801210A43E9
:1005D0001A6052E0FA68022313400CD0284B284AD4
:1005E000126802218A431A60254B254A12680221AB
:1005F0000A431A6041E0FA68042313400CD0204BF0
:100600001F4A126804218A431A601D4B1C4A126853
:1006100004210A431A6030E0FA68082313400CD022
:10062000174B174A126808218A431A60144B144A60
:10063000126808210A431A601FE0BA6801231340B8
:100640001BD00F4B0022DA6112E00D4B5B6A7B601E
:100650007A68FF2313401A2B0AD10A4B1A687B6869
:100660009A4202D1084B7A681A60064B7A681A607F
:10067000034BDA6801231340E7D1BD4604B080BDC7
:1006800000000D40440000203800002090B583B0E9
:1006900000AF3B1C197800220A401A210A431A7045
:1006A000994B1B689B059B0FD9B27B1C03220A4008
:1006B0001978032081430A431A70934B1B689B07E8
:1006C000DB0FD9B27B1C01220A409200197804206A
:1006D00081430A431A708C4B1B68DB07DB0FD9B2CE
:1006E0007B1C01220A40D2001978082081430A436A
:1006F0001A707B1C1A7810218A431A70834B1B686E
:1007000099B2BB1D01220A401A80804B1B685B080E
:10071000181C0A2102F008FD0B1C9BB25B0099B269
:10072000BB1DBA1D12888A181A80784B1B685B089B
:10073000181C0A2102F0B4FC031C181C0A2102F048
:10074000F3FC0B1C9BB25B0199B2BB1DBA1D128856
:100750008A181A806D4B1B685B08181C642102F014
:100760009FFC031C181C0A2102F0DEFC0B1C9BB230
:100770005B0299B2BB1DBA1D12888A181A80634B9E
:100780001B685B08181CFA23990002F089FC031C03
:10079000181C0A2102F0C8FC0B1C9BB25B0399B227
:1007A000BB1DBA1D12888A181A80BB1D1B885B03EB
:1007B0003968574A0A4013433B60534B5A78042325
:1007C0001340DBB2002B07D0FB1C1A7860218A4350
:1007D00040210A431A7004E0FB1C1A7860218A4306
:1007E0001A703A684B4B1A604B4B1B683B603B6876
:1007F000DB001B0C9BB21A1C01231A403B68DB0078
:100800001B0C9BB25B089BB2191C0F230B405B00B7
:10081000D1183B68DB001B0C9BB25B099BB21A1C16
:100820000F2313405A00131C9B009B185B00CA182F
:100830003B68DB001B0C9BB25B0A9BB2191C0F23AD
:100840000B405B0064214B43D2183B68DB001B0C60
:100850009BB25B0B9BB2191C0F230B405B00FA2170
:1008600089004B43D3181A1C2C4B1A602B4B1B6866
:100870009AB22B4B1F211140C9001C780720204041
:1008800001431970510988B2FF2101405C780020B2
:10089000204001435970520B92B2111C07220A40AA
:1008A0009978072081430A439A703B681B05DB0F48
:1008B000D9B21B4B01220A401978012081430A4317
:1008C0001A703B685B05DB0FD9B2154B01220A4059
:1008D00052001978022081430A431A70FB1C1A78CF
:1008E00060231340DBB2402B05D10D4B1A78042155
:1008F0000A431A7004E00A4B1A7804218A431A70DA
:10090000BD4603B090BDC046380100205000002015
:10091000FF1F00E0400000203800002058000020A9
:100920003401002080B500AF01F084FA031C1A1CCA
:10093000014B1A80BD4680BD4A00002080B582B0C0
:1009400000AF021CFB1D1A70FFF7ECFFFB1D1B78AC
:100950000B2B00D980E09A00424BD3181B689F46AE
:10096000414B1B881A1C0123134001D0002374E063
:10097000012372E03C4B1B881A1C0223134001D058
:1009800000236AE0012368E0374B1B881A1C04230C
:10099000134001D0002360E001235EE0324B1B884E
:1009A0001A1C0823134001D0002356E0012354E011
:1009B0002D4B1B881A1C1023134001D000234CE040
:1009C00001234AE0284B1B881A1C2023134001D026
:1009D000002342E0012340E0234B1B881A1C4023E4
:1009E000134001D0002338E0012336E01E4B1B8862
:1009F0001A1C8023134001D000232EE001232CE099
:100A0000194B1B881A1C80235B00134001D0002364
:100A100023E0012321E0144B1B881A1C80235B0078
:100A2000134001D0012318E0002316E00E4B1B8871
:100A30001A1C80239B00134001D000230DE00123EA
:100A40000BE0094B1B881A1C80239B00134001D02C
:100A5000012302E0002300E00023181CBD4602B081
:100A600080BDC046603100004A00002090B583B0D0
:100A700000AFFFF7A5FB031CFC1D181CFFF7CAFB0A
:100A8000031C2370BB1D134A12781A70124B1B787B
:100A9000FA1D12789A4205D001F0C8FB021C0F4BD8
:100AA0001A600DE00D4B1B68181C01F0C9FB021CFD
:100AB000FA239B009A4203D9064BFA1D12781A704A
:100AC000054BFA1D12781A70024B1B78181CBD4694
:100AD00003B090BD00000020010000204C00002069
:100AE00080B500AF024B1B78181CBD4680BDC046C8
:100AF0000000002090B583B000AF021C3960FB1DE0
:100B00001A70FB1D1B78181CFFF718FF031C1FD061
:100B1000FB1D1A78144B9200D358002B08D1FB1DF3
:100B20001C7801F083FB011C0F4BA200D1500DE09B
:100B3000FB1D1A780C4B9200D358181C01F080FB57
:100B4000021C3B689A4201D3012308E0002306E01F
:100B5000FB1D1A78044B92000021D1500023181C71
:100B6000BD4603B090BDC046F400002080B582B001
:100B700000AF021CFB1D1A70FB1D1A78034B92007C
:100B80000021D150BD4602B080BDC046F400002017
:100B900080B500AF114B01229A60C0460F4B1A6816
:100BA00004231340FAD00D4B81225200DA600B4B24
:100BB000822252005A60C046084B1A680223134032
:100BC000FAD00820012101F0A1FF054B00221A6094
:100BD000024B83225200DA60BD4680BD0000024015
:100BE0000080014080B500AFFEE7C04680B582B00E
:100BF00000AFFFF775FF031C0C2B00D0DDE0FA23DC
:100C00005B010020191CFFF775FF031C17D0924BE6
:100C10001B68181C142102F087FA0B1C132B06D139
:100C20008D4B1B681A1C133A8B4B1A6004E08A4BDD
:100C30001B685A1C884B1A600020FFF797FFFA23A5
:100C40005B010120191CFFF755FF031C16D0824BD6
:100C50001B68181C142102F067FA0B1C06D17E4B8E
:100C60001B681A1C13327C4B1A6004E07A4B1B6819
:100C70005A1E794B1A600120FFF778FFFA235B01B7
:100C80000220191CFFF736FF031C1ED0724B1B6895
:100C90005B08181C0A2102F003FA031C181C0A2125
:100CA00002F042FA0B1C092B06D16B4B1B681A1C75
:100CB000B43A694B1A6005E0674B1B681A1C143282
:100CC000654B1A600220FFF751FFFA235B010320F6
:100CD000191CFFF70FFF031C1DD05F4B1B685B083F
:100CE000181C0A2102F0DCF9031C181C0A2102F06E
:100CF0001BFA0B1C06D1584B1B681A1CB432564BFE
:100D00001A6005E0544B1B681A1C143A524B1A60C7
:100D10000320FFF72BFFFA235B010420191CFFF7C8
:100D2000E9FE031C1ED04C4B1B685B08181C642199
:100D300002F0B6F9031C181C142102F0F5F90B1C83
:100D4000132B06D1444B1B6844495A18424B1A6076
:100D500005E0414B1B681A1CC8323F4B1A60042047
:100D6000FFF704FFFA235B010520191CFFF7C2FE01
:100D7000031C1DD0384B1B685B08181C642102F053
:100D80008FF9031C181C142102F0CEF90B1C06D19C
:100D9000314B1B6832495A182F4B1A6005E02E4B15
:100DA0001B681A1CC83A2C4B1A600520FFF7DEFEA0
:100DB000294B1A682B4B1A607EE0FA235B01022054
:100DC000191CFFF797FE031C17D0274B1B78013B1C
:100DD000DAB2254B1A70244B1B78002B02D1224B20
:100DE00001221A700220FFF7C1FE01F01FFA021C57
:100DF0001E4B1A601E4B01221A70FA235B0103205E
:100E0000191CFFF777FE031C17D0174B1B78013313
:100E1000DAB2154B1A70144B1B78082B02D9124BFF
:100E200008221A700320FFF7A1FE01F0FFF9021C4F
:100E30000E4B1A600E4B01221A7000F009FE031CC3
:100E400018D0FFF74DFE031C181C00F0B7FB031C65
:100E50001A1C044B1A6019E05400002028F1FFFF0F
:100E6000D80E000050000020300000206C00002050
:100E700070000020FFF734FE031C0B33DBB2181C9C
:100E800000F09CFB031C1A1C754B1A60754B1B78F9
:100E9000012B11D1744B1B68181C01F0D1F9021CF5
:100EA000724B9A4208D9724B1B781720191C00F01C
:100EB0001FFB6C4B00221A706E4B1B68DAB20123C9
:100EC0001340DBB23A1D191C8900CB181370694B13
:100ED0001B685B08181C0A2102F026F90B1C1A1C5F
:100EE000FB1C1A70634B1B685B08181C0A2102F07C
:100EF000D7F8031C181C0A2102F016F90B1C1A1C47
:100F0000FB1D1A705B4B1B685B08181C642102F008
:100F1000C7F8031C181C0A2102F006F90B1C1A1C46
:100F2000BB1D1A70534B1B685B08181CFA239900F1
:100F300002F0B6F8031C181C0A2102F0F5F80B1C8D
:100F40001A1C7B1D1A707B1D1B78002B10D17B1D7A
:100F500010221A70BB1D1B78002B09D1BB1D10225B
:100F60001A70FB1D1B78002B02D1FB1D10221A707A
:100F7000404B1A68404B9A4204D93E4B1A683F4B8B
:100F80009A4204D93B4B1A683D4B9A421BD13D4BC8
:100F90005A7804231340DBB2002B14D13A4B7A1D4C
:100FA00012781A71384BBA1D1278DA70364BFA1D66
:100FB00012789A70344BFA1C12785A70324B3A1DE0
:100FC00012781A7049E0314B1B78012B20D12E4B3F
:100FD00010221A712C4B1022DA702B4B10229A70AF
:100FE000294B10225A70284B10221A70284B1B686C
:100FF000181C01F025F9021C264B9A422DD9234BCF
:1010000000221A7001F012F9021C214B1A6024E030
:101010001D4B7A1D12781A711B4BBA1D1278DA70AB
:10102000194BFA1D12789A70174BFA1C12785A70E5
:10103000154B3A1D12781A70154B1B68181C01F0DD
:10104000FFF8021C134B9A4207D9104B01221A7069
:1010500001F0ECF8021C0E4B1A60BD4602B080BDD8
:1010600050000020700000206C000020A0860100CD
:1010700030000020580000202B010000AC0D0000C3
:101080000C11000038010020240100205C00002029
:10109000600000208813000090B583B000AF4D4B76
:1010A0001A7808231340DBB2002B07D1494B1A787A
:1010B00004231340DBB2002B00D186E0464B1B78A3
:1010C000002B1AD1FFF7D2FC031C0C2B00D07DE0C3
:1010D000FA23DB000620191CFFF70CFD031C00D1CE
:1010E00074E03D4B01221A700620FFF73FFD01F02E
:1010F0009DF8021C394B1A6068E0374B1B78012BB6
:1011000014D1364B1B68181C01F09AF8021C344BA2
:101110009A4202D9304B00221A700620FFF70EFCCB
:10112000031C53D12C4B02221A704FE02A4B1B7820
:10113000022B3DD1294B1B68181C01F081F8021CC1
:10114000274B9A4202D9244B00221A70FC1DFFF74C
:101150008DFC031C2370FB1D1B780C2B36D0FA234F
:10116000DB000620191CFFF7C5FC031C2ED0FB1D5D
:101170001B780B2B18D800F06BFC031C09D0194B03
:101180001B689BB2FA1D1278101C191C00F0B0F9F4
:101190000AE0FB1D1B780B33DAB2124B1B689BB2C3
:1011A000101C191C00F0A4F90B4B03221A700DE05F
:1011B000094B1B78032B09D10620FFF7BFFB031C4B
:1011C00004D1054B00221A7000E0C046BD4603B0B2
:1011D00090BDC04638010020640000206800002057
:1011E00060EA00005400002080B582B000AF0A1C05
:1011F000FB1D011C1970BB1D1A70BB1D1B78002B39
:1012000002D1BB1D00221A70BB1D1A782A4B920016
:10121000D35CDB07DB0FDBB2181C012100F04EF8BA
:10122000BB1D1A78244B9200D35C9B07DB0FDBB20B
:10123000181C022100F042F8BB1D1A781E4B9200C8
:10124000D35C5B07DB0FDBB2181C042100F036F81F
:10125000BB1D1A78184B9200D35C1B07DB0FDBB267
:10126000181C082100F02AF8BB1D1A78124B9200B6
:10127000D35CDB06DB0FDBB2181C102100F01EF87C
:10128000BB1D1A780C4B9200D35C9B06DB0FDBB2C4
:10129000181C202100F012F8BB1D1A78064B920092
:1012A000D35C5B06DB0FDBB2181C402100F006F8B4
:1012B000BD4602B080BDC0469031000080B582B00E
:1012C00000AF0A1CFB1D011C19703B1D1A80FB1D81
:1012D0001B78012B05D13B1D1B88181C00F05CFE00
:1012E00004E03B1D1B88181C00F094FEBD4602B0B4
:1012F00080BDC04680B582B000AF00F097FF031CF0
:101300007B600D4B0F221A710B4B0F22DA700A4BC8
:101310000F229A70084B0F225A70074B0F221A7037
:10132000C0467B68181C00F08BFF031C632BF8D9A8
:10133000BD4602B080BDC0462401002080B500AF8C
:10134000134B134AD269802189010A43DA61114B98
:1013500000221A600F4B104A1A60C0460D4BDA6823
:1013600001231340FAD10B4B02225A60C046094BAD
:10137000DA6802231340FAD1064B0A229A60054B21
:10138000064A1A60034B064A1A60BD4680BDC04635
:10139000000002400080064055550000AAAA000047
:1013A000CCCC000080B500AF024B034A1A60BD46AA
:1013B00080BDC04600800640AAAA000080B500AFEC
:1013C000FFF7E6FBFEF77CFE00F0AEFCFEF7FCFF4D
:1013D000172000F0F3F8031CDAB20E4B1A700D4B15
:1013E0001B78082B02D90B4B01221A7000F068FE03
:1013F000FFF7A4FF00F0E2FBFFF7D4FFFFF736FB97
:1014000000F06EF9FFF7F2FBFFF746FEFFF73EF93B
:10141000F2E7C0463000002080B500AF064A8023C6
:10142000D3581A1C054B1A60034A802301214942F4
:10143000D150BD4680BDC04600E100E074000020F0
:1014400080B500AF024B034A12681A60BD4680BDEA
:1014500000E100E07400002080B582B000AF786049
:101460000A1CBB1C1A80FFF7D7FFBB1C1B887A68BD
:10147000101C00211A1C01F063FEFFF7E1FFBD46BE
:1014800002B080BD80B582B000AF7860FFF7C4FFC6
:101490007B68181C002101F05BFEFFF7D1FFBD4601
:1014A00002B080BD80B582B000AFF0235B027B60EC
:1014B0007B681A88064B9A4206D17A68054B1B78DE
:1014C000101C191CFFF7C8FFBD4602B080BDC04606
:1014D000FFFF00004800002080B582B000AFF0237D
:1014E0005B027B607B681B88181CBD4602B080BD18
:1014F00080B588B000AF0A1CFB1D011C19703B1D94
:101500001A80F8235B02BB61FB1D1B78002B4ED0B9
:10151000FB1D1B78172B4AD8FB1D1B78013B7B61F9
:101520007B69FB612CE0FB695B00BA69D3183B6106
:101530003B1C0E333A6912881A803B1C0E331A8802
:101540001D4B9A4219D1FB69173B5B00BA69D2184F
:101550003B1C0E3312881A803A1C0E323B1D128837
:101560001B889A4206D03A693B1D1B88101C191C27
:10157000FFF772FF3B1D1B881AE0FB691733FB6105
:10158000FB697F2BCFD9FFF7B5FE00F05BF8F8239E
:101590005B02181CFFF776FFFB1D1A783B1D1B88AA
:1015A000101C191C00F06CF83B1D1B8800E0002388
:1015B000181CBD4608B080BDFFFF000080B586B096
:1015C00000AF021CFB1D1A703B1C123300221A8054
:1015D000FB1D1B78013B5B00FB60FB1D1B78002B98
:1015E00025D0FB68F82252029B187B6111E07B69D1
:1015F0001A88124B9A4209D13B1C12337A692E3A4F
:1016000012881A803B1C12331B8813E07B692E332F
:101610007B617A690A4B9A42E9D93B1C12337A6999
:101620002E3A12881A803B1C12331B8802E03B1CA6
:1016300012331B88181CBD4606B080BDFFFF00009A
:10164000FFF0010080B582B000AF00237B600FE0A7
:101650007B68DBB20133DBB2181CFFF7AFFF031C62
:10166000191C064B7A685200D1527B6801337B60AB
:101670007B68162BECDDBD4602B080BD78000020F3
:1016800080B584B000AF0A1CFB1D011C19703B1D06
:101690001A800123FB601BE0FB1D1A78FB689A424D
:1016A0000BD0FB68DAB2FB68591E0C4B4900CB5AD1
:1016B000101C191CFFF71CFF07E0FB68DAB23B1D8A
:1016C0001B88101C191CFFF713FFFB680133FB601C
:1016D000FB68172BE0DDBD4604B080BD780000201C
:1016E00080B500AFFA239B000A20191CFFF702FA0D
:1016F000031C08D0364B1A7801218A431A700A203D
:10170000FFF734FA0FE0FA239B000B20191CFFF7B8
:10171000F1F9031C07D02E4B1A7801210A431A70E5
:101720000B20FFF723FAFA239B000820191CFFF770
:10173000E1F9031C08D0264B1A7802218A431A705B
:101740000820FFF713FA0FE0FA239B000920191C69
:10175000FFF7D0F9031C07D01D4B1A7802210A436A
:101760001A700920FFF702FAFA239B000720191CC0
:10177000FFF7C0F9031C05D0154B5A7804210A4322
:101780005A700EE0124B5A7804231340DBB2002B40
:1017900002D00720FFF7EAF90D4B5A7804218A435B
:1017A0005A70002000F016F8012000F013F8022013
:1017B00000F010F800F012F9042000F00BF80520FA
:1017C00000F008F8062000F005F8BD4680BDC046D0
:1017D0003801002090B583B000AF021CFB1D1A70C9
:1017E000FB1D1A78204B9200D358181C00F082FB86
:1017F000031C1BD1FB1D1A781C4B9200D358181CDC
:1018000000F01EFD021CFA239B009A4229D9FB1D01
:101810001B78181C012100F02DF8FB1D1C7800F02E
:1018200005FD011C124BA200D1501AE0FB1D1A78D5
:101830000F4B9200D358181C00F002FD021CFA2333
:101840009B009A420DD9FB1D1B78181C002100F04B
:1018500011F8FB1D1C7800F0E9FC011C034BA200F1
:10186000D150BD4603B090BD04000020C800002048
:10187000A800002080B582B000AF0A1CFB1D011C2F
:101880001970BB1D1A70FB1D1B78062B00D99EE03A
:101890009A00504BD3181B689F46BB1D1A78012332
:1018A0001340D9B24C4B01220A409200197804200F
:1018B00081430A431A708AE0BB1D1A780123134042
:1018C000D9B2454B01220A40D20019780820814341
:1018D0000A431A707BE0BB1D1A7801231340D9B26A
:1018E0003D4B01220A4012011978102081430A431E
:1018F0001A706CE0BB1D1A7801231340D9B2364B25
:1019000001220A4052011978202081430A431A70AB
:101910005DE0314B1B689B059B0FDAB2022313403D
:10192000D9B22D4B03220A405978032081430A4340
:101930005A70294B1B689B059B0FDBB21A1CBB1D01
:101940001B781343DBB21A1C03231340D9B2224B7A
:1019500003220A405978032081430A435A7036E033
:101960001D4B1B689B059B0FDAB201231340D9B2B4
:10197000194B03220A405978032081430A435A70C5
:10198000154B1B689B059B0FDBB2DAB2BB1D1B78A6
:101990005B00DBB21343DBB2DBB21A1C0323134040
:1019A000D9B20D4B03220A405978032081430A43E0
:1019B0005A700CE0BB1D1A7801231340DAB2064BB3
:1019C000D20118787F2101400A431A70C046BD46F3
:1019D00002B080BDD83100003801002080B500AFD2
:1019E000184BDB68181C00F085FA031C012B13D17F
:1019F000154BDB68181C00F023FC021CFA239B002B
:101A00009A421CD903200121FFF734FF00F00EFC9D
:101A1000021C0E4BDA6012E00C4BDB68181C00F065
:101A20000FFC021CFA239B009A4208D903200021D4
:101A3000FFF720FF00F0FAFB021C034BDA60BD4603
:101A400080BDC04604000020C8000020A80000207F
:101A500080B500AF3B4B1A7808231340DBB2002B54
:101A600006D0384B1A7804231340DBB2002B0DD17B
:101A7000344B1A7804231340DBB2002B12D1314BC4
:101A80001A7808231340DBB2002B0BD080235B01B4
:101A9000181C00F0BFFA2B4B1A7840218A431A70A9
:101AA00001234BE0274B1A7804231340DBB2002BB1
:101AB0000DD0244B1A7808231340DBB2002B06D13B
:101AC00080235B01181C00F067FA002336E01D4BF1
:101AD0001A7804231340DBB2002B24D1194B1A7857
:101AE00008231340DBB2002B1DD1164B1A781023AC
:101AF0001340DBB2002B16D1124B1A78202313406F
:101B0000DBB2002B0BD00F4B1A7840210A431A701E
:101B100080235B01181C00F03FFA00230EE000F068
:101B200013F8031C0AE0074B1A7840218A431A7005
:101B300080235B01181C00F06DFA0123181CBD46C0
:101B400080BDC0463801002080B500AF1A4B1A781E
:101B500040231340DBB2002B20D0174B1A78102300
:101B60001340DBB2002B19D1134B1B787F22934318
:101B7000DBB2002B06D080235B01181C00F00CFAAE
:101B8000002316E00C4B1A7840218A431A708023F8
:101B90005B01181C00F03EFA01230AE0064B1A789C
:101BA00040218A431A7080235B01181C00F032FA2E
:101BB0000123181CBD4680BD3801002080B584B0CB
:101BC00000AF0023BB60FFF787FC031C1A1C3E4BD1
:101BD0009A4200D074E03D4B181C00F083F800F0EE
:101BE00025FB031CFB60C046FB68181C00F028FBAB
:101BF000021C374B9A42F7D900F018FB031CFB601C
:101C0000344B7B600023BB601AE07A68BB68D31852
:101C1000181C00F067F8FB68181C00F011FB021C90
:101C2000C8231B019A420BD9BB680133BB60BB6858
:101C30000D2B01D90023BB6000F0F8FA031CFB60F8
:101C4000FA235B010620191CFEF754FF031CDCD0AD
:101C5000214B181C00F046F8C0460620FEF76EFE29
:101C6000031CFAD10023BB6000E0C0461B4BBA68DE
:101C70009200D358181C00F035F8FA235B010220BB
:101C8000191CFEF737FF031C0AD00220FEF76EFF77
:101C9000BB680133BB60BB68022B01D90023BB606A
:101CA000FA235B010720191CFEF724FF031CDCD07C
:101CB000C046BB68DAB20A4B1A70FFF7F3FB00E0CC
:101CC000C046BD4604B080BDFFFF000014320000D6
:101CD0005FEA00001C3200000C32000024000020EB
:101CE0004800002080B582B000AF78607B681A7829
:101CF0000C4B1A717B6801331A780A4BDA707B68D7
:101D000002331A78074B9A707B6803331A78054BB5
:101D10005A707B6804331A78024B1A70BD4602B0C1
:101D200080BDC0462401002080B584B000AF85236B
:101D30009B05181C012100F0E9FE3B1C00221A72D1
:101D40003B1C01229A723B1C01225A723B1C00224E
:101D50001A713B1C00225A713B1C00229A713B1CD9
:101D60000022DA713B1C00229A703B1C0122DA70BF
:101D70000023FB6021E02D48FA680821131C5B005A
:101D80009B189B00C3185B181B780122111C9940FB
:101D90000B1C9AB23B1C1A802449FA68131C5B0086
:101DA0009B189B00CB1804331A683B1C101C191C91
:101DB00000F0E6FDFB680133FB60FB68112BDAD90C
:101DC0003B1C01229A703B1C0022DA700023FB604E
:101DD00021E01748FA680821131C5B009B189B0040
:101DE000C3185B181B780122111C99400B1C9AB276
:101DF0003B1C1A800E49FA68131C5B009B189B0061
:101E0000CB1804331A683B1C101C191C00F0B8FDD9
:101E1000FB680133FB60FB680C2BDAD9002000F073
:101E2000BBF80023181CBD4604B080BD343400004C
:101E30009833000098B500AF012000F05BF8031C58
:101E40009CB2022000F056F8031C9BB25B009BB2D0
:101E500023439CB2042000F04DF8031C9BB29B006E
:101E60009BB223439CB2082000F044F8031C9BB2B1
:101E7000DB009BB223439CB2102000F03BF8031C14
:101E80009BB21B019BB223439CB2202000F032F88E
:101E9000031C9BB25B019BB223439CB2402000F029
:101EA00029F8031C9BB29B019BB223439CB2802068
:101EB00000F020F8031C9BB2DB019BB223439CB2D1
:101EC00080235B00181C00F015F8031C9BB21B025A
:101ED0009BB223439CB280239B00181C00F00AF89D
:101EE000031C9BB25B029BB223439BB2181CBD46F2
:101EF00098BDC04690B585B000AF78600023FB6008
:101F000008E07B685B087B607B68002B06D0FB6881
:101F10000133FB607B68002BF3D100E0C0461C4915
:101F2000FA68131C5B009B189B00CB1804331B68DA
:101F30001968174CFA680820131C5B009B189B005B
:101F4000E3181B181B780122101C9840031C0B403F
:101F50000CD0FB680122111C99400B1C1A1C0D4B64
:101F60001B681A430B4B1A6001230CE0FB6801222B
:101F7000101C9840031CDB431A1C064B1B681A40BC
:101F8000044B1A600023181CBD4605B090BDC04626
:101F9000343400002C01002090B585B000AF78608B
:101FA0000023FB602CE07A680123134022D01749FC
:101FB000FA68131C5B009B189B00CB1804331A684B
:101FC000124CF96808200B1C5B005B189B00E3189F
:101FD0001B181B780121081C9840031C1362FB6826
:101FE0000122111C99400B1C1A1C094B1B681A4337
:101FF000074B1A607B685B087B60FB680133FB6002
:102000007B68002BCFD1BD4605B090BD9833000052
:102010003001002090B585B000AF78600023FB60F0
:102020002DE07A680123134023D01849FA68131C65
:102030005B009B189B00CB1804331A68134CF9689B
:1020400008200B1C5B005B189B00E3181B181B7817
:102050000121081C9840031C5362FB680122111CDB
:1020600099400B1CDB431A1C094B1B681A40084B98
:102070001A607B685B087B60FB680133FB607B68F0
:10208000002BCED1BD4605B090BDC04698330000B0
:102090003001002080B582B000AF021CFB1D1A7019
:1020A000064BFA1D1278111C1F220A400121081C40
:1020B0009040021C1A60BD4602B080BD00E100E005
:1020C00080B588B000AF1E4B00221A608023DB0170
:1020D000181C012100F01AFD3B1C00221A603B1C59
:1020E00010229A803B1C64229A603B1C00229A8139
:1020F0003B1C0022DA813B1C00221A823B1C00227E
:102100005A823B1C00229A820E4A3B1C101C191C4E
:1021100000F01AFD0B4B181C002100F089FD094B43
:10212000181C0221012200F065FD064B181C01213C
:1021300000F042FD0E20FFF7ADFFBD4608B080BDA8
:102140003C0100200000074080B582B000AF2F4B5B
:102150002E4A526D02218A435A652D4B1B78013B52
:102160002C4AD35C7B602C4B1B68181C00F068F871
:10217000021C7B681021CB1A9A4208D3274B1B788C
:102180001A1C274B9200D358181CFFF743FF254B0E
:102190001A680F23134031D1204B1B781A1C204B97
:1021A0009200D358181CFFF735FF1C4B1B780133E6
:1021B000DAB21A4B1A70194B1B78042B02D9174B41
:1021C00000221A70154B1B781A1C154B9200D3581D
:1021D000DAB2124B1B781449CB5C101C191CFFF7A8
:1021E00003F80E4B1B781A1C0D4B9200D358181C89
:1021F000FFF7D2FE0B4B1A68074B1A60094B1B689E
:102200005A1C084B1A60BD4602B080BD0000074052
:102210003000002020350000E8000020EC00002005
:102220000C3500003C0100202401002080B500AFE7
:10223000024B1B68181CBD4680BDC0463C010020F7
:1022400080B582B000AF7860034B1A687B68D31A00
:10225000181CBD4602B080BD3C01002080B500AF17
:10226000024B01221A60BD4680BDC04640010020DD
:1022700080B582B000AF021CFB1D1A70064BFA1D20
:102280001278111C1F220A400121081C9040021CD8
:102290001A60BD4602B080BD00E100E080B582B0AA
:1022A00000AF021CFB1D1A70064AFB1D1B78191C8F
:1022B0001F230B40012199408023D150BD4602B01D
:1022C00080BDC04600E100E080B584B000AF021CD4
:1022D000FB1D1A70FB1D1B782C225A43134BD3187D
:1022E000BB6080231B03FB60BB685B7E002B03D1BC
:1022F000BB689B7E002B07D0BB6801221A70FB686D
:1023000002221343FB6002E0BB6800221A70BB6824
:1023100000225A70FB1D1A78FB68101C191C00F073
:102320009BFA0023181CBD4604B080BD5C01002050
:1023300080B584B000AF0A1CFB1D011C1970BB1DC9
:102340001A70FB1D1B782C225A43164BD318BB6006
:102350000023FB60BB1D1B78012B05D1FB1D1B78E7
:10236000002B01D1012318E0BB1D1B78012B03D0EA
:10237000BB689B7E002B08D0BB68BA1D12785A70D0
:10238000BB6805221A700A23FB60FB1D1A78FB68E4
:10239000101C191C00F060FA0023181CBD4604B084
:1023A00080BDC0465C010020B0B58AB000AF021C01
:1023B0003960FB1D1A703B1C273300221A703B1C2E
:1023C000243300221A80FB1D1B78181C00F0DEFC51
:1023D000031CFB61FB1D1B78181C00F0EBFC021CAE
:1023E00003231340BB61FB1D1B78181C00F096FCF7
:1023F000031C7B61FB1D1B782C225A43C94BD3184D
:102400003B613A680123134002D03B6901221A76EE
:102410003B691B78052B00D9B9E19A00C24BD31850
:102420001B689F460023BBE17A690223134000D05A
:10243000A6E13B691B7E002B00D1A1E1BB69022B09
:102440000ED13B695B7E002B0AD03B6903221A70D8
:102450003B6900225A763B1C273301221A7019E08F
:10246000BB69002B0BD13B699B7E002B07D03B69DE
:1024700004221A703B1C273301221A700AE03B1C0D
:10248000243301221A80FB1D1B78181C0021FFF742
:102490004FFF75E174E17A69022313404BD13B6928
:1024A0001B7E002B47D0BB69012B44D1FA69402326
:1024B000134040D03B69DA683B691B69D2183B691D
:1024C000DA603B69DA683B699B689A422CD33B69C6
:1024D00000221A703B69DB69002B0FD03B69DD6974
:1024E0003B695A683B699B683C1C2434F91D097898
:1024F000081C111C1A1CA847031C23803B1C2433F6
:102500001B88002B09D13B691B78002B46D1FB1D92
:102510001B78181CFFF7D8FE40E0FB1D1B78181C29
:102520000021FFF705FF39E0FB1D1B78181C012176
:1025300000F03AF932E0FA690F23134000D121E1AB
:102540003B6900221A703B699B6A002B0BD03B69E8
:102550009D6A3C1C2434FB1D1878F969BA697B69B3
:10256000A847031C23803B1C24331B88002B0ED15F
:102570003B691B78002B00D004E13B6902221A70F2
:10258000FB1D1B78181C002100F00EF9FAE0FB1D62
:102590001B78181C0021FFF7CBFEF3E0C046F1E0EA
:1025A0007A690223134000D0EEE03B691B7E002BCA
:1025B00000D1E9E03B1C273300221A70FB1D1B7879
:1025C000181C00F039FC031CFB6000233B6211E087
:1025D0003B695A683B69D9683B6ACB18D418FB1D24
:1025E0001B78181C00F016FC031CDBB223703B6A3E
:1025F00001333B623A6AFB689A42E9D3FB1D1B78C0
:10260000181C012100F02EFC3B69DA68FB68D21827
:102610003B69DA603B69DA683B699B689A422DD373
:102620003B6900221A703B691B6A002B0FD03B6983
:102630001D6A3B695A683B69DB683C1C2434F91D00
:102640000978081C111C1A1CA847031C23803B1C7A
:1026500024331B88002B0AD13B691B78002B00D048
:1026600092E0FB1D1B78181CFFF72EFE8CE0FB1D73
:102670001B78181C0021FFF75BFE85E0FB1D1B7813
:10268000181C022100F0E8F87EE03B691B7E002B5D
:102690005CD0FB1D1B78181C00F0CEFB031CFB60FC
:1026A000FB68082B42D100233B620EE03B695A696C
:1026B0003B6AD418FB1D1B78181C00F0ABFB031CF5
:1026C000DBB223703B6A01333B623A6AFB689A4291
:1026D000ECD3FB1D1B78181C012100F0C3FB3B69E8
:1026E0005A6A3B695B693C1C2434F91D0978081C53
:1026F000191C9047031C23803B1C24331B88002B90
:1027000009D13B691B78042B20D1FB1D1B78181CB9
:10271000FFF7DAFD1AE0FB1D1B78181C0021FFF7FC
:1027200007FE13E05C01002028350000FB1D1B782C
:10273000181C012100F096FB3B1C243301221A8057
:10274000FB1D1B78181C0021FFF7F2FD3B1C2733F3
:1027500000221A701BE07A690223134016D13B69EC
:102760005B78012B06D1FB1D1B78181C0121FFF79C
:10277000DFFD0BE0FB1D1B78181CFFF7A5FD05E036
:10278000C04604E0C04602E0C04600E0C0463B1C34
:1027900027331B78002B00D03AE63B1C24331B88E0
:1027A000181CBD460AB0B0BD80B586B000AF0A1C8B
:1027B000FB1D011C1970BB1D1A70FB1D1B782C2200
:1027C0005A43244BD3183B61FB1D1B78181C012175
:1027D00000F074FBBB1D1B78012B02D0022B06D02E
:1027E0000CE0FB1D1B78181C00F07EFB06E0FB1DB7
:1027F0001B78181C042100F0A3FAC0463B699968B5
:102800003B69DA683B691B69D2180B1C934200D9FB
:10281000131CFB603B69DB687B610DE03B695A6818
:102820007B69D3181B78FA1D1278101C191C00F054
:102830002FFB7B6901337B617A69FB689A42EDD398
:10284000FB1D1B78181C022100F006F8BD4606B0DF
:1028500080BDC0465C01002080B584B000AF021C82
:102860003960FB1D1A70FB1D1B782C225A43094B43
:10287000D318FB601F2000F0BFFAFB6800221A7615
:10288000FB1D1A783B68101C191C00F059FABD4654
:1028900004B080BD5C01002080B500AF034B032273
:1028A0001A700023181CBD4680BDC0464801002098
:1028B00090B585B000AF3B1C0A3300221A8002207D
:1028C000FFF7ECFC1B4B1B68002B2CD1194B012292
:1028D0001A6000F085FA031C7B607A6804231340B9
:1028E00005D03C1C0A34FFF7D7FF031C23800023CC
:1028F000FB6009E0FB68DAB27B68101C191CFFF76B
:1029000053FDFB680133FB60FB68032BF2D97B6846
:1029100021229343181C00F06FFA064B00221A6024
:102920000220FFF7A5FC3B1C0A331B88181CBD4680
:1029300005B090BDF000002080B500AFFFF7B8FFF4
:10294000BD4680BD80B584B000AF021CFB1D1A706F
:102950000A4B1B68FB60FB1D1B78002B04D0FB6837
:1029600001221343FB6003E0FB6801229343FB60F9
:10297000024BFA681A60BD4604B080BD0080084072
:1029800080B58EB000AF786039607B685B687B6330
:102990007B689B683B637B68DB68FB627B681B69C9
:1029A000BB627B685B697B627B689B693B627B681F
:1029B000DB69FB6100237B6101233B610323FB6037
:1029C000514BBB603B681B88BB6181E0BA69012346
:1029D00013406ED03B69DB437A6B1A403B689B78AF
:1029E000191C7B69081C9840031C13437B63FB681C
:1029F000DB433A6B1A403B681B7A191C7B695B000E
:102A0000081C9840031C13433B633B69DB43FA6A91
:102A10001A403B689B7A191C7B69081C9840031C70
:102A20001343FB62BB68DB43BA6A1A403B68DB783E
:102A3000191C7B691033081C9840031C1A433B681F
:102A40001B79191C7B69081C9840031C1343BB624B
:102A5000BB68DB437A6A1A403B685B79191C7B6967
:102A60001033081C9840031C1A433B689B79191CBF
:102A70007B69081C9840031C13437B62FB68DB43A3
:102A80003A6A1A403B685B7A191C7B695B00081C38
:102A90009840031C13433B623B69DB43FA691A40CD
:102AA0003B68DB79191C7B69081C9840031C1343A5
:102AB000FB613B695B003B61FB689B00FB60BB68A3
:102AC0005B00BB607B6901337B61BB695B08BB61F9
:102AD000BB69002B00D079E77B687A6B5A607B6812
:102AE0003A6B9A607B68FA6ADA607B68BA6A1A6144
:102AF0007B687A6A5A617B683A6A9A617B68FA698C
:102B0000DA61BD460EB080BD0100010080B582B023
:102B100000AF78600A1CFB1C1A70FB1C1B78002B92
:102B200006D0084B074AD1697A680A43DA6106E0A1
:102B3000044B044AD2697968C9430A40DA61BD4648
:102B400002B080BD0000024080B584B000AF786064
:102B500039603B681A687B681A603B689B881A1C5E
:102B60007B685A603B689A687B689A603B689B897F
:102B70001A1C3B68DB89D2183B681B8AD2183B6859
:102B80005B8AD2183B689B8AD318FB607B68FA6823
:102B9000DA603B68DB8A1A013B681B8BD2183B6802
:102BA0005B8BD2183B689B8BD318BB607B68BA6881
:102BB0001A65BD4604B080BD80B584B000AF7860B2
:102BC0000A1CFB1C1A707B68DB68FB60FB1C1B7813
:102BD000002B04D0FB6801221343FB6003E0FB6879
:102BE00001229343FB607B68FA68DA60BD4604B05B
:102BF00080BDC04680B586B000AFF860B960FB1DEF
:102C00001A70FB689B6D7B61FB1D1B78002B04D049
:102C10007A69BB6813437B6104E0BB68DA437B6974
:102C200013407B61FB687A699A65BD4606B080BD3A
:102C300080B584B000AF786039607A68304B9A42D2
:102C400003D1304B9B6AFB6002E02E4B5B6AFB605A
:102C50007A682D4B9A420DD1FB68FF229343FB60AB
:102C6000FA683B681343FB60FB68802252041343FD
:102C7000FB6037E07A68254B9A420ED1FA68244B04
:102C80001340FB603B681B02FA681343FB60FB6860
:102C9000802292041343FB6024E07A681D4B9A4221
:102CA0000ED1FA681C4B1340FB603B681B04FA68AA
:102CB0001343FB60FB688022D2041343FB6011E0E6
:102CC0007A680F4B9A420DD1FA68134B1340FB60A0
:102CD0003B681B04FA681343FB60FB688022D20444
:102CE0001343FB607A68064B9A4203D1054BFA689E
:102CF0009A6202E0034BFA685A62BD4604B080BD96
:102D000000800940000002400000074000800740AA
:102D1000FF00FFFF00000840FFFF00FF80B582B00A
:102D200000AF021CFB1D1A70044BFA1D1278103202
:102D30001201D358181CBD4602B080BD00000140EE
:102D400080B584B000AF021C3960FB1D1A700E4BB9
:102D5000FA1D127810321201D358FB603B681B0435
:102D60001B0CFA681343FB603B681B0CDA43FB68DF
:102D70001340FB60044BFA1D127810321201F968FF
:102D8000D150BD4604B080BD0000014080B582B086
:102D900000AF021CFB1D1A70054AFB1D1B78103387
:102DA0001B01D3185B68181CBD4602B080BDC0462D
:102DB0000000014080B582B000AF021CFB1D1A70FC
:102DC0000649FB1D1A7884235B0012018A18D31868
:102DD0001B68181CBD4602B080BDC0460000014003
:102DE00080B500AF034AA4235B00D358181CBD462E
:102DF00080BDC0460000014080B582B000AF786061
:102E0000034AA4235B007968D150BD4602B080BD5F
:102E10000000014080B582B000AF021CFB1D1A709B
:102E2000044BFA1D12780332D201D358181CBD4648
:102E300002B080BD0000014080B582B000AF021C2E
:102E4000FB1D1A700649FB1D1A78C4235B00D201D2
:102E50008A18D3185B68181CBD4602B080BDC046F6
:102E60000000014080B582B000AF021C3960FB1D3C
:102E70001A700649FB1D1A78C8235B00D2018A1814
:102E8000D3183A681A60BD4602B080BD0000014008
:102E900080B582B000AF021C3960FB1D1A70064974
:102EA000FB1D1A78E0235B00D2018A18D3183A6818
:102EB0001A60BD4602B080BD0000014080B582B0FE
:102EC00000AF021C3960FB1D1A700649FB1D1A7801
:102ED000E8235B00D2018A18D3183A681A60BD460D
:102EE00002B080BD0000014080B584B000AF021C7C
:102EF000FB1D1A700A4BFA1D127810321201D358BA
:102F0000FB60FB6804225340FB60054BFA1D1278FE
:102F100010321201F968D150BD4604B080BDC046E0
:102F200000000140FEF74AFA0E490F4A0F4B00F02D
:102F300011F80F490F4A104B00F00CF80F49104AD6
:102F40000020521A02DD043A8850FCDC00F082F8BE
:102F5000FFF7E8FF9B1A03DD043BC858D050FBDCA9
:102F600070470000403500000000002038000020BD
:102F7000783500000000102048051020380000209F
:102F80000C020020FEE7C04680B586B000AF2D4B96
:102F9000DA680223134002D02B4B7B6101E02A4BFD
:102FA0007B61284BDA680123134002D07B695B0800
:102FB0007B617B693B61234BDA68042313400AD0B1
:102FC000204B5B681A0A0F2313400133BB603B6937
:102FD000BA6853433B611B4BDB681A0A0323134057
:102FE000012B07D002D3022B20D024E0174B164A26
:102FF0001A6024E0134BDB681A090F2313407B602F
:103000007A68082313400BD07A68072313407B604B
:103010007B6801333A69111CD9400B1CFB6001E04D
:103020003B69FB60094BFA681A6008E0074B802295
:1030300012021A6003E0054B054A1A60C046BD46FD
:1030400006B080BD0000024000127A00340000206B
:10305000409C000080B500AF0F4B104ADA610E4B68
:10306000DB680D4B0022DA600B4B5B680A4B0022D9
:103070005A60094B9B68084B00229A60064B1B69FB
:10308000054B00221A61044B5B69034B00225A6115
:10309000FFF77AFFBD4680BD000002401000000827
:1030A000002934D00123002210B488422CD30124FB
:1030B0002407A14204D2814202D209011B01F8E790
:1030C000E400A14204D2814202D249005B00F8E749
:1030D000884201D3401A1A434C08A04202D3001B75
:1030E0005C0822438C08A04202D3001B9C082243A8
:1030F000CC08A04202D3001BDC082243002803D0E6
:103100001B0901D00909E3E7101C10BC7047002817
:1031100001D00020C04307B4024802A14018029029
:1031200003BDC046190000000029F0D003B5FFF729
:10313000B9FF0EBC4243891A1847C0467047C046C3
:1031400001B40248844601BC604700BFF903102067
:1031500001B40248844601BC604700BFDD01102075
:103160006009000074090000880900009C09000043
:10317000B0090000C4090000D8090000EC090000F3
:10318000000A0000160A00002C0A0000420A000093
:103190003F000000060000005B0000004F00000040
:1031A000660000006D0000007D00000007000000C8
:1031B0007F0000006F000000770000007C0000002E
:1031C000390000005E00000079000000710000007E
:1031D00000000000730000009A180000B8180000FA
:1031E000D6180000F4180000121900006019000041
:1031F000B4190000111003050100000011100305AF
:103200000300000011100400000000001010101056
:103210001000000008080808080000001010101036
:103220000001020304050607080910101010000031
:103230005345474D454E5420494E44494B41544F08
:10324000522041005345474D454E5420494E444974
:103250004B41544F522042005345474D454E542058
:10326000494E44494B41544F522043005345474D2A
:10327000454E5420494E44494B41544F522044003E
:103280005345474D454E5420494E44494B41544FB8
:10329000522045005345474D454E5420494E444920
:1032A0004B41544F522046005345474D454E542004
:1032B000494E44494B41544F522047004847203122
:1032C000000000004847203200000000484720333B
:1032D0000000000048472034000000004847203527
:1032E00000000000535645544F44494F440000002D
:1032F0005341332B000000005341332D00000000E8
:103300005341342B000000005341342D00000000D5
:103310005341352B000000005341352D00000000C3
:10332000C7C0CFC8D1DC0000CACECDD2D0CECBDC56
:1033300000000000D2CBD400D2CBC30044414C4E9D
:1033400049590000424C49474E495900534841539E
:10335000535900004D41524B455200004B4F442001
:1033600050552023310000004B4F4420505520235E
:103370003200000046554E4354494F4E414C2043C5
:103380004F4E54524F4C000044505253204155541C
:103390004F4D4154000000003032000000800E40CC
:1033A000010100004432000000800E4002010000D4
:1033B0005832000000800E40030100006C32000013
:1033C00000800E40040100008032000000800E40AA
:1033D000050100009432000000800E40060100004C
:1033E000A832000000800E4007010000BC3200003F
:1033F00000800E4008010000C432000000800E4032
:1034000009010000CC32000000800E400A010000DB
:10341000D432000000800E400B010000DC320000BE
:1034200000800E400C010000E432000000000C405F
:1034300008010000F032000000800E400D01000085
:10344000F832000000800E400E0100000033000042
:1034500000800E400F0100000833000000000C4007
:10346000000100001033000000000C4001010000CA
:103470001833000000000C4002010000203300005F
:1034800000000C40030100002833000000000C4045
:10349000040100003433000000000C40050100006E
:1034A0003833000000000C40060100003C330000EF
:1034B00000000B400C0100004433000000000B40F2
:1034C0000D0100004C33000000000B400E01000015
:1034D0005433000000000B400F0100005C3300007B
:1034E00000000B40080100006833000000000B40A2
:1034F000090100007433000000000B400A010000C5
:103500008833000000000B400B0100008000000029
:10351000000100000002000000040000000800009C
:10352000000407090B0C0D0E2424000028240000C1
:1035300096240000A02500008A26000056270000DF
:103540000C0C000000080000000400000010000047
:103550000020000000400000008000000000020089
:1035600000000100F4310000FC31000004320000D2
:083570000100000000127A00C6
:1035780080B584B000AF78607B68FB6002E0FB68D0
:10358800013BFB60FB68002BF9D1BD4604B080BD50
:1035980080B586B000AF78603960224B224A1A6144
:1035A800204B1A6838231340012213437B613B6880
:1035B800012B02D180239B0000E000237A6913438A
:1035C8007B61184B7A691A60164B7A685A60154BFA
:1035D8007A69E02149000A431A60124BDB68114BF3
:1035E800DB68104BDB680F4BDB683B617A6938237B
:1035F80013407B610B4B7A691A600A4B00221A61EF
:103608007A6803231340DB00FB60FB683A69111CEE
:10361800D9400B1C3B613B69DBB2181CBD4606B0A8
:1036280080BDC046008001405155AA8A80B586B049
:1036380000AF78603960224B224A1A61204B1A6821
:1036480038231340012213437B613B68012B02D1CD
:1036580080239B0000E000237A6913437B61184BA9
:103668007A691A60164B7A685A60154B7A69E021B4
:1036780049000A431A60124BDB68114BDB68104B98
:10368800DB680F4BDB683B617A69382313407B6149
:103698000B4B7A691A600A4B00221A617A68022376
:1036A8001340DB00FB60FB683A69111CD9400B1C16
:1036B8003B613B699BB2181CBD4606B080BDC04645
:1036C800008001405155AA8A80B584B000AF786067
:1036D80039601C4B1C4A1A611A4B1A68382313406C
:1036E80001221343FB603B68012B02D180239B001E
:1036F80000E00023FA681343FB60124BFA681A6073
:10370800104B7A685A600F4BFA68E02149000A4367
:103718001A600C4BDB680B4BDB680A4BDB68094B08
:10372800DB68BB60FA6838231340FB60054BFA6816
:103738001A60044B00221A61BB68181CBD4604B00D
:1037480080BDC046008001405155AA8A80B584B02A
:1037580000AF78603960304B304A1A612E4B1A68D6
:103768003823134001221343FB603B68012B02D12D
:1037780080239B0000E00023FA681343FB60264B7C
:10378800FA681A600023BB6035E0234B7968BA6891
:103798008A185A60204B00229A60FB688822D2005F
:1037A8001343FB601C4BFA681A600520FFF7E0FE24
:1037B800FB68802292011343FB60174BFA681A607A
:1037C800174B181CFFF7D4FEFA68164B1340FB6022
:1037D800114BFA681A600520FFF7CAFEFA68124B07
:1037E8001340FB600C4BFA681A600120FFF7C0FE1B
:1037F800BB680433BB60BB680F2BC6D9FA68382393
:103808001340FB60044BFA681A60034B00221A61EC
:10381800BD4604B080BDC046008001405155AA8A0B
:10382800409C0000FFFBFFFFBFDFFFFF80B584B0B7
:1038380000AF78602E4B2F4A1A612D4B1A68382337
:10384800134001221343FB607B68022B02D18023C3
:103858009B0000E00023FA681343FB60244BFA68DE
:103868001A600023BB6033E0214BBA685A60204BD2
:1038780000229A60FB68C42212011343FB601C4BB0
:10388800FA681A600520FFF773FEFB688022920130
:103898001343FB60164BFA681A60174B181CFFF7A6
:1038A80067FEFA68154B1340FB60114BFA681A6003
:1038B8006420FFF75DFEFA68114B1340FB600C4B68
:1038C800FA681A600120FFF753FEBB680433BB6037
:1038D800BB680F2BC8D9FA6838231340FB60044B28
:1038E800FA681A60024B00221A61BD4604B080BD16
:1038F800008001405155AA8A409C0000FFFBFFFF51
:10390800BFD7FFFF80B588B000AFF860B9607A60B4
:10391800FA6803231340DB00FB61FB697A68111C1A
:1039280099400B1C7B60FB69FF22111C99400B1C02
:10393800BB61FA68BB68101C191CFFF7C5FE031CA5
:103948007B61BB69DB437A691A407B68B9690B40C4
:103958001343F968BA68081C111C1A1C00F038F8DF
:10396800BD4608B080BDC04680B588B000AFF860DD
:10397800B9607A60FA6802231340DB00FB61FB69D7
:103988007A68111C99400B1C7B60FB690F4A111C5B
:1039980099400B1CBB61FA68BB68101C191CFFF727
:1039A80093FE031C7B61BB69DB437A691A407B6821
:1039B800B9690B401343F968BA68081C111C1A1C32
:1039C80000F006F8BD4608B080BDC046FFFF000005
:1039D80080B586B000AFF860B9607A60324B334A80
:1039E8001A61BB68012B02D180239B0000E00023F1
:1039F800BB602D4B1A68382313407B61BA687B691A
:103A08001343012213437B61274B7A691A60264BC3
:103A1800FA685A60244B7A689A607B69822252015C
:103A280013437B61204B7A691A600520FFF7A0FDDC
:103A38007B698022920113437B611B4B7A691A6070
:103A48000A20FFF795FD7B69802213437B61164BA3
:103A58007A691A602820FFF78BFD7B6980229343DF
:103A68007B61114B7A691A607A69114B13407B614B
:103A78000D4B7A691A600520FFF77AFD7A690D4BBC
:103A880013407B61084B7A691A600120FFF770FDCB
:103A9800054B796938220A401A60034B00221A61E3
:103AA800BD4606B080BDC046008001405155AA8A77
:083AB800FFEFFFFFBFDFFFFF7E
:0400000300002F29A1
:00000001FF
